{
	"data": {
		"bytecode": {
			"linkReferences": {},
			"object": "60806040523480156200001157600080fd5b5060405162003ec438038062003ec48339818101604052810190620000379190620001d3565b6002839080600181540180825580915050600190039060005260206000200160009091909190916101000a81548173ffffffffffffffffffffffffffffffffffffffff021916908373ffffffffffffffffffffffffffffffffffffffff1602179055506002829080600181540180825580915050600190039060005260206000200160009091909190916101000a81548173ffffffffffffffffffffffffffffffffffffffff021916908373ffffffffffffffffffffffffffffffffffffffff1602179055506002819080600181540180825580915050600190039060005260206000200160009091909190916101000a81548173ffffffffffffffffffffffffffffffffffffffff021916908373ffffffffffffffffffffffffffffffffffffffff1602179055505050506200022f565b600080fd5b600073ffffffffffffffffffffffffffffffffffffffff82169050919050565b60006200019b826200016e565b9050919050565b620001ad816200018e565b8114620001b957600080fd5b50565b600081519050620001cd81620001a2565b92915050565b600080600060608486031215620001ef57620001ee62000169565b5b6000620001ff86828701620001bc565b93505060206200021286828701620001bc565b92505060406200022586828701620001bc565b9150509250925092565b613c85806200023f6000396000f3fe6080604052600436106200007a5760003560e01c8063622ae7aa1162000055578063622ae7aa14620001235780637093f47f1462000153578063a56922a81462000197578063ec81aadb14620001b7576200007a565b80632ba996a5146200007f57806349a2104d14620000af57806351fe9eff14620000df575b600080fd5b3480156200008c57600080fd5b5062000097620001fb565b604051620000a6919062000cd9565b60405180910390f35b348015620000bc57600080fd5b50620000c762000489565b604051620000d6919062000d18565b60405180910390f35b348015620000ec57600080fd5b506200010b600480360381019062000105919062000d7a565b62000496565b6040516200011a919062000dd1565b60405180910390f35b3480156200013057600080fd5b506200013b620004d6565b6040516200014a919062000cd9565b60405180910390f35b3480156200016057600080fd5b506200017f600480360381019062000179919062000e1f565b62000566565b6040516200018e919062000e6e565b60405180910390f35b620001b56004803603810190620001af91906200105c565b62000586565b005b348015620001c457600080fd5b50620001e36004803603810190620001dd919062000d7a565b62000b89565b604051620001f2919062001166565b60405180910390f35b6060600080600090505b600080549050811015620002cd57600160008083815481106200022d576200022c62001183565b5b9060005260206000200160009054906101000a900473ffffffffffffffffffffffffffffffffffffffff1673ffffffffffffffffffffffffffffffffffffffff1673ffffffffffffffffffffffffffffffffffffffff16815260200190815260200160002060009054906101000a900460ff1615620002b7578180620002b390620011e1565b9250505b8080620002c490620011e1565b91505062000205565b5060008167ffffffffffffffff811115620002ed57620002ec62000ea6565b5b6040519080825280602002602001820160405280156200031c5781602001602082028036833780820191505090505b509050600080600090505b6000805490508110156200047f57600160008083815481106200034f576200034e62001183565b5b9060005260206000200160009054906101000a900473ffffffffffffffffffffffffffffffffffffffff1673ffffffffffffffffffffffffffffffffffffffff1673ffffffffffffffffffffffffffffffffffffffff16815260200190815260200160002060009054906101000a900460ff1615620004695760008181548110620003df57620003de62001183565b5b9060005260206000200160009054906101000a900473ffffffffffffffffffffffffffffffffffffffff168383806200041890620011e1565b9450815181106200042e576200042d62001183565b5b602002602001019073ffffffffffffffffffffffffffffffffffffffff16908173ffffffffffffffffffffffffffffffffffffffff16815250505b80806200047690620011e1565b91505062000327565b5081935050505090565b6834957444b840e8000081565b60028181548110620004a757600080fd5b906000526020600020016000915054906101000a900473ffffffffffffffffffffffffffffffffffffffff1681565b606060008054806020026020016040519081016040528092919081815260200182805480156200055c57602002820191906000526020600020905b8160009054906101000a900473ffffffffffffffffffffffffffffffffffffffff1673ffffffffffffffffffffffffffffffffffffffff168152602001906001019080831162000511575b5050505050905090565b60016020528060005260406000206000915054906101000a900460ff1681565b6834957444b840e800003414620005d4576040517f08c379a0000000000000000000000000000000000000000000000000000000008152600401620005cb90620012b5565b60405180910390fd5b60006103e861025834620005e99190620012d7565b620005f5919062001351565b905060006103e860c8346200060b9190620012d7565b62000617919062001351565b905060006103e860c8346200062d9190620012d7565b62000639919062001351565b9050600260008154811062000653576200065262001183565b5b9060005260206000200160009054906101000a900473ffffffffffffffffffffffffffffffffffffffff1673ffffffffffffffffffffffffffffffffffffffff166108fc849081150290604051600060405180830381858888f19350505050158015620006c4573d6000803e3d6000fd5b506002600181548110620006dd57620006dc62001183565b5b9060005260206000200160009054906101000a900473ffffffffffffffffffffffffffffffffffffffff1673ffffffffffffffffffffffffffffffffffffffff166108fc839081150290604051600060405180830381858888f193505050501580156200074e573d6000803e3d6000fd5b506002808154811062000766576200076562001183565b5b9060005260206000200160009054906101000a900473ffffffffffffffffffffffffffffffffffffffff1673ffffffffffffffffffffffffffffffffffffffff166108fc829081150290604051600060405180830381858888f19350505050158015620007d7573d6000803e3d6000fd5b506005895110158015620007ed57506014895111155b6200082f576040517f08c379a00000000000000000000000000000000000000000000000000000000081526004016200082690620013ff565b60405180910390fd5b60038851101580156200084457506005885111155b62000886576040517f08c379a00000000000000000000000000000000000000000000000000000000081526004016200087d9062001497565b60405180910390fd5b60028660ff16101580156200089f575060128660ff1611155b620008e1576040517f08c379a0000000000000000000000000000000000000000000000000000000008152600401620008d8906200152f565b60405180910390fd5b60328551111562000929576040517f08c379a00000000000000000000000000000000000000000000000000000000081526004016200092090620015c7565b60405180910390fd5b620186a0871015801562000942575064174876e8008711155b62000984576040517f08c379a00000000000000000000000000000000000000000000000000000000081526004016200097b906200165f565b60405180910390fd5b60008660ff16600a620009989190620017d5565b88620009a59190620012d7565b9050878760ff16600a620009ba9190620017d5565b82620009c7919062001351565b1462000a0a576040517f08c379a000000000000000000000000000000000000000000000000000000000815260040162000a01906200189c565b60405180910390fd5b60008a8a8a8a8a3360405162000a209062000bc9565b62000a319695949392919062001947565b604051809103906000f08015801562000a4e573d6000803e3d6000fd5b5090506000819080600181540180825580915050600190039060005260206000200160009091909190916101000a81548173ffffffffffffffffffffffffffffffffffffffff021916908373ffffffffffffffffffffffffffffffffffffffff16021790555085600160008373ffffffffffffffffffffffffffffffffffffffff1673ffffffffffffffffffffffffffffffffffffffff16815260200190815260200160002060006101000a81548160ff0219169083151502179055503373ffffffffffffffffffffffffffffffffffffffff168173ffffffffffffffffffffffffffffffffffffffff167f4ecb2712e5ed1ca5d8efc9f6f5b82c8054a06bb82de7ea1def5e4f963173f2918d8d8d8d8d8d60405162000b7496959493929190620019c9565b60405180910390a35050505050505050505050565b6000818154811062000b9a57600080fd5b906000526020600020016000915054906101000a900473ffffffffffffffffffffffffffffffffffffffff1681565b6122048062001a4c83390190565b600081519050919050565b600082825260208201905092915050565b6000819050602082019050919050565b600073ffffffffffffffffffffffffffffffffffffffff82169050919050565b600062000c308262000c03565b9050919050565b62000c428162000c23565b82525050565b600062000c56838362000c37565b60208301905092915050565b6000602082019050919050565b600062000c7c8262000bd7565b62000c88818562000be2565b935062000c958362000bf3565b8060005b8381101562000ccc57815162000cb0888262000c48565b975062000cbd8362000c62565b92505060018101905062000c99565b5085935050505092915050565b6000602082019050818103600083015262000cf5818462000c6f565b905092915050565b6000819050919050565b62000d128162000cfd565b82525050565b600060208201905062000d2f600083018462000d07565b92915050565b6000604051905090565b600080fd5b600080fd5b62000d548162000cfd565b811462000d6057600080fd5b50565b60008135905062000d748162000d49565b92915050565b60006020828403121562000d935762000d9262000d3f565b5b600062000da38482850162000d63565b91505092915050565b600062000db98262000c03565b9050919050565b62000dcb8162000dac565b82525050565b600060208201905062000de8600083018462000dc0565b92915050565b62000df98162000c23565b811462000e0557600080fd5b50565b60008135905062000e198162000dee565b92915050565b60006020828403121562000e385762000e3762000d3f565b5b600062000e488482850162000e08565b91505092915050565b60008115159050919050565b62000e688162000e51565b82525050565b600060208201905062000e85600083018462000e5d565b92915050565b600080fd5b600080fd5b6000601f19601f8301169050919050565b7f4e487b7100000000000000000000000000000000000000000000000000000000600052604160045260246000fd5b62000ee08262000e95565b810181811067ffffffffffffffff8211171562000f025762000f0162000ea6565b5b80604052505050565b600062000f1762000d35565b905062000f25828262000ed5565b919050565b600067ffffffffffffffff82111562000f485762000f4762000ea6565b5b62000f538262000e95565b9050602081019050919050565b82818337600083830152505050565b600062000f8662000f808462000f2a565b62000f0b565b90508281526020810184848401111562000fa55762000fa462000e90565b5b62000fb284828562000f60565b509392505050565b600082601f83011262000fd25762000fd162000e8b565b5b813562000fe484826020860162000f6f565b91505092915050565b600060ff82169050919050565b620010058162000fed565b81146200101157600080fd5b50565b600081359050620010258162000ffa565b92915050565b620010368162000e51565b81146200104257600080fd5b50565b60008135905062001056816200102b565b92915050565b60008060008060008060c087890312156200107c576200107b62000d3f565b5b600087013567ffffffffffffffff8111156200109d576200109c62000d44565b5b620010ab89828a0162000fba565b965050602087013567ffffffffffffffff811115620010cf57620010ce62000d44565b5b620010dd89828a0162000fba565b9550506040620010f089828a0162000d63565b94505060606200110389828a0162001014565b935050608087013567ffffffffffffffff81111562001127576200112662000d44565b5b6200113589828a0162000fba565b92505060a06200114889828a0162001045565b9150509295509295509295565b620011608162000c23565b82525050565b60006020820190506200117d600083018462001155565b92915050565b7f4e487b7100000000000000000000000000000000000000000000000000000000600052603260045260246000fd5b7f4e487b7100000000000000000000000000000000000000000000000000000000600052601160045260246000fd5b6000620011ee8262000cfd565b91507fffffffffffffffffffffffffffffffffffffffffffffffffffffffffffffffff8203620012235762001222620011b2565b5b600182019050919050565b600082825260208201905092915050565b7f4d757374207061792031303030204f4e4520746f20637265617465206120746f60008201527f6b656e0000000000000000000000000000000000000000000000000000000000602082015250565b60006200129d6023836200122e565b9150620012aa826200123f565b604082019050919050565b60006020820190508181036000830152620012d0816200128e565b9050919050565b6000620012e48262000cfd565b9150620012f18362000cfd565b9250828202620013018162000cfd565b915082820484148315176200131b576200131a620011b2565b5b5092915050565b7f4e487b7100000000000000000000000000000000000000000000000000000000600052601260045260246000fd5b60006200135e8262000cfd565b91506200136b8362000cfd565b9250826200137e576200137d62001322565b5b828204905092915050565b7f546f6b656e206e616d65206c656e677468206d7573742062652062657477656560008201527f6e203520616e6420323020636861726163746572730000000000000000000000602082015250565b6000620013e76035836200122e565b9150620013f48262001389565b604082019050919050565b600060208201905081810360008301526200141a81620013d8565b9050919050565b7f546f6b656e2073796d626f6c206c656e677468206d757374206265206265747760008201527f65656e203320616e642035206368617261637465727300000000000000000000602082015250565b60006200147f6036836200122e565b91506200148c8262001421565b604082019050919050565b60006020820190508181036000830152620014b28162001470565b9050919050565b7f546f6b656e20646563696d616c73206d757374206265206265747765656e203260008201527f20616e6420313800000000000000000000000000000000000000000000000000602082015250565b6000620015176027836200122e565b91506200152482620014b9565b604082019050919050565b600060208201905081810360008301526200154a8162001508565b9050919050565b7f57656273697465206c656e677468206d7573742062652035302063686172616360008201527f74657273206f72206c6573730000000000000000000000000000000000000000602082015250565b6000620015af602c836200122e565b9150620015bc8262001551565b604082019050919050565b60006020820190508181036000830152620015e281620015a0565b9050919050565b7f546f74616c20737570706c79206d757374206265206265747765656e2031303060008201527f2c30303020616e64203130302062696c6c696f6e000000000000000000000000602082015250565b6000620016476034836200122e565b91506200165482620015e9565b604082019050919050565b600060208201905081810360008301526200167a8162001638565b9050919050565b60008160011c9050919050565b6000808291508390505b6001851115620016e057808604811115620016b857620016b7620011b2565b5b6001851615620016c85780820291505b8081029050620016d88562001681565b945062001698565b94509492505050565b600082620016fb5760019050620017ce565b816200170b5760009050620017ce565b81600181146200172457600281146200172f5762001765565b6001915050620017ce565b60ff841115620017445762001743620011b2565b5b8360020a9150848211156200175e576200175d620011b2565b5b50620017ce565b5060208310610133831016604e8410600b84101617156200179f5782820a905083811115620017995762001798620011b2565b5b620017ce565b620017ae84848460016200168e565b92509050818404811115620017c857620017c7620011b2565b5b81810290505b9392505050565b6000620017e28262000cfd565b9150620017ef8362000cfd565b92506200181e7fffffffffffffffffffffffffffffffffffffffffffffffffffffffffffffffff8484620016e9565b905092915050565b7f4f766572666c6f7720646574656374656420696e20746f74616c20737570706c60008201527f792063616c63756c6174696f6e00000000000000000000000000000000000000602082015250565b600062001884602d836200122e565b9150620018918262001826565b604082019050919050565b60006020820190508181036000830152620018b78162001875565b9050919050565b600081519050919050565b60005b83811015620018e9578082015181840152602081019050620018cc565b60008484015250505050565b60006200190282620018be565b6200190e81856200122e565b935062001920818560208601620018c9565b6200192b8162000e95565b840191505092915050565b620019418162000fed565b82525050565b600060c0820190508181036000830152620019638189620018f5565b90508181036020830152620019798188620018f5565b90506200198a604083018762000d07565b62001999606083018662001936565b8181036080830152620019ad8185620018f5565b9050620019be60a083018462001155565b979650505050505050565b600060c0820190508181036000830152620019e58189620018f5565b90508181036020830152620019fb8188620018f5565b905062001a0c604083018762000d07565b62001a1b606083018662001936565b818103608083015262001a2f8185620018f5565b905062001a4060a083018462000e5d565b97965050505050505056fe60806040523480156200001157600080fd5b5060405162002204380380620022048339818101604052810190620000379190620003d7565b856000908162000048919062000711565b5084600190816200005a919062000711565b5082600260006101000a81548160ff021916908360ff160217905550816004908162000087919062000711565b5082600a6200009791906200097b565b84620000a49190620009cc565b600381905550600354600560008373ffffffffffffffffffffffffffffffffffffffff1673ffffffffffffffffffffffffffffffffffffffff168152602001908152602001600020819055508073ffffffffffffffffffffffffffffffffffffffff16600073ffffffffffffffffffffffffffffffffffffffff167fddf252ad1be2c89b69c2b068fc378daa952ba7f163c4a11628f55a4df523b3ef60035460405162000152919062000a28565b60405180910390a350505050505062000a45565b6000604051905090565b600080fd5b600080fd5b600080fd5b600080fd5b6000601f19601f8301169050919050565b7f4e487b7100000000000000000000000000000000000000000000000000000000600052604160045260246000fd5b620001cf8262000184565b810181811067ffffffffffffffff82111715620001f157620001f062000195565b5b80604052505050565b60006200020662000166565b9050620002148282620001c4565b919050565b600067ffffffffffffffff82111562000237576200023662000195565b5b620002428262000184565b9050602081019050919050565b60005b838110156200026f57808201518184015260208101905062000252565b60008484015250505050565b6000620002926200028c8462000219565b620001fa565b905082815260208101848484011115620002b157620002b06200017f565b5b620002be8482856200024f565b509392505050565b600082601f830112620002de57620002dd6200017a565b5b8151620002f08482602086016200027b565b91505092915050565b6000819050919050565b6200030e81620002f9565b81146200031a57600080fd5b50565b6000815190506200032e8162000303565b92915050565b600060ff82169050919050565b6200034c8162000334565b81146200035857600080fd5b50565b6000815190506200036c8162000341565b92915050565b600073ffffffffffffffffffffffffffffffffffffffff82169050919050565b60006200039f8262000372565b9050919050565b620003b18162000392565b8114620003bd57600080fd5b50565b600081519050620003d181620003a6565b92915050565b60008060008060008060c08789031215620003f757620003f662000170565b5b600087015167ffffffffffffffff81111562000418576200041762000175565b5b6200042689828a01620002c6565b965050602087015167ffffffffffffffff8111156200044a576200044962000175565b5b6200045889828a01620002c6565b95505060406200046b89828a016200031d565b94505060606200047e89828a016200035b565b935050608087015167ffffffffffffffff811115620004a257620004a162000175565b5b620004b089828a01620002c6565b92505060a0620004c389828a01620003c0565b9150509295509295509295565b600081519050919050565b7f4e487b7100000000000000000000000000000000000000000000000000000000600052602260045260246000fd5b600060028204905060018216806200052357607f821691505b602082108103620005395762000538620004db565b5b50919050565b60008190508160005260206000209050919050565b60006020601f8301049050919050565b600082821b905092915050565b600060088302620005a37fffffffffffffffffffffffffffffffffffffffffffffffffffffffffffffffff8262000564565b620005af868362000564565b95508019841693508086168417925050509392505050565b6000819050919050565b6000620005f2620005ec620005e684620002f9565b620005c7565b620002f9565b9050919050565b6000819050919050565b6200060e83620005d1565b620006266200061d82620005f9565b84845462000571565b825550505050565b600090565b6200063d6200062e565b6200064a81848462000603565b505050565b5b8181101562000672576200066660008262000633565b60018101905062000650565b5050565b601f821115620006c1576200068b816200053f565b620006968462000554565b81016020851015620006a6578190505b620006be620006b58562000554565b8301826200064f565b50505b505050565b600082821c905092915050565b6000620006e660001984600802620006c6565b1980831691505092915050565b6000620007018383620006d3565b9150826002028217905092915050565b6200071c82620004d0565b67ffffffffffffffff81111562000738576200073762000195565b5b6200074482546200050a565b6200075182828562000676565b600060209050601f83116001811462000789576000841562000774578287015190505b620007808582620006f3565b865550620007f0565b601f19841662000799866200053f565b60005b82811015620007c3578489015182556001820191506020850194506020810190506200079c565b86831015620007e35784890151620007df601f891682620006d3565b8355505b6001600288020188555050505b505050505050565b7f4e487b7100000000000000000000000000000000000000000000000000000000600052601160045260246000fd5b60008160011c9050919050565b6000808291508390505b600185111562000886578086048111156200085e576200085d620007f8565b5b60018516156200086e5780820291505b80810290506200087e8562000827565b94506200083e565b94509492505050565b600082620008a1576001905062000974565b81620008b1576000905062000974565b8160018114620008ca5760028114620008d5576200090b565b600191505062000974565b60ff841115620008ea57620008e9620007f8565b5b8360020a915084821115620009045762000903620007f8565b5b5062000974565b5060208310610133831016604e8410600b8410161715620009455782820a9050838111156200093f576200093e620007f8565b5b62000974565b62000954848484600162000834565b925090508184048111156200096e576200096d620007f8565b5b81810290505b9392505050565b60006200098882620002f9565b9150620009958362000334565b9250620009c47fffffffffffffffffffffffffffffffffffffffffffffffffffffffffffffffff84846200088f565b905092915050565b6000620009d982620002f9565b9150620009e683620002f9565b9250828202620009f681620002f9565b9150828204841483151762000a105762000a0f620007f8565b5b5092915050565b62000a2281620002f9565b82525050565b600060208201905062000a3f600083018462000a17565b92915050565b6117af8062000a556000396000f3fe608060405234801561001057600080fd5b50600436106100cf5760003560e01c806342966c681161008c578063a457c2d711610066578063a457c2d71461023c578063a9059cbb1461026c578063beb0a4161461029c578063dd62ed3e146102ba576100cf565b806342966c68146101be57806370a08231146101ee57806395d89b411461021e576100cf565b806306fdde03146100d4578063095ea7b3146100f257806318160ddd1461012257806323b872dd14610140578063313ce56714610170578063395093511461018e575b600080fd5b6100dc6102ea565b6040516100e9919061117b565b60405180910390f35b61010c60048036038101906101079190611236565b610378565b6040516101199190611291565b60405180910390f35b61012a61046a565b60405161013791906112bb565b60405180910390f35b61015a600480360381019061015591906112d6565b610470565b6040516101679190611291565b60405180910390f35b6101786107d0565b6040516101859190611345565b60405180910390f35b6101a860048036038101906101a39190611236565b6107e3565b6040516101b59190611291565b60405180910390f35b6101d860048036038101906101d39190611360565b610963565b6040516101e59190611291565b60405180910390f35b6102086004803603810190610203919061138d565b610b46565b60405161021591906112bb565b60405180910390f35b610226610b5e565b604051610233919061117b565b60405180910390f35b61025660048036038101906102519190611236565b610bec565b6040516102639190611291565b60405180910390f35b61028660048036038101906102819190611236565b610e2b565b6040516102939190611291565b60405180910390f35b6102a4611038565b6040516102b1919061117b565b60405180910390f35b6102d460048036038101906102cf91906113ba565b6110c6565b6040516102e191906112bb565b60405180910390f35b600080546102f790611429565b80601f016020809104026020016040519081016040528092919081815260200182805461032390611429565b80156103705780601f1061034557610100808354040283529160200191610370565b820191906000526020600020905b81548152906001019060200180831161035357829003601f168201915b505050505081565b600081600660003373ffffffffffffffffffffffffffffffffffffffff1673ffffffffffffffffffffffffffffffffffffffff16815260200190815260200160002060008573ffffffffffffffffffffffffffffffffffffffff1673ffffffffffffffffffffffffffffffffffffffff168152602001908152602001600020819055508273ffffffffffffffffffffffffffffffffffffffff163373ffffffffffffffffffffffffffffffffffffffff167f8c5be1e5ebec7d5bd14f71427d1e84f3dd0314c0f7b2291e5b200ac8c7c3b9258460405161045891906112bb565b60405180910390a36001905092915050565b60035481565b60008073ffffffffffffffffffffffffffffffffffffffff168373ffffffffffffffffffffffffffffffffffffffff16036104e0576040517f08c379a00000000000000000000000000000000000000000000000000000000081526004016104d7906114a6565b60405180910390fd5b600560008573ffffffffffffffffffffffffffffffffffffffff1673ffffffffffffffffffffffffffffffffffffffff16815260200190815260200160002054821115610562576040517f08c379a000000000000000000000000000000000000000000000000000000000815260040161055990611512565b60405180910390fd5b600660008573ffffffffffffffffffffffffffffffffffffffff1673ffffffffffffffffffffffffffffffffffffffff16815260200190815260200160002060003373ffffffffffffffffffffffffffffffffffffffff1673ffffffffffffffffffffffffffffffffffffffff16815260200190815260200160002054821115610621576040517f08c379a00000000000000000000000000000000000000000000000000000000081526004016106189061157e565b60405180910390fd5b81600660008673ffffffffffffffffffffffffffffffffffffffff1673ffffffffffffffffffffffffffffffffffffffff16815260200190815260200160002060003373ffffffffffffffffffffffffffffffffffffffff1673ffffffffffffffffffffffffffffffffffffffff16815260200190815260200160002060008282546106ad91906115cd565b9250508190555081600560008673ffffffffffffffffffffffffffffffffffffffff1673ffffffffffffffffffffffffffffffffffffffff168152602001908152602001600020600082825461070391906115cd565b9250508190555081600560008573ffffffffffffffffffffffffffffffffffffffff1673ffffffffffffffffffffffffffffffffffffffff16815260200190815260200160002060008282546107599190611601565b925050819055508273ffffffffffffffffffffffffffffffffffffffff168473ffffffffffffffffffffffffffffffffffffffff167fddf252ad1be2c89b69c2b068fc378daa952ba7f163c4a11628f55a4df523b3ef846040516107bd91906112bb565b60405180910390a3600190509392505050565b600260009054906101000a900460ff1681565b600081600660003373ffffffffffffffffffffffffffffffffffffffff1673ffffffffffffffffffffffffffffffffffffffff16815260200190815260200160002060008573ffffffffffffffffffffffffffffffffffffffff1673ffffffffffffffffffffffffffffffffffffffff16815260200190815260200160002060008282546108719190611601565b925050819055508273ffffffffffffffffffffffffffffffffffffffff163373ffffffffffffffffffffffffffffffffffffffff167f8c5be1e5ebec7d5bd14f71427d1e84f3dd0314c0f7b2291e5b200ac8c7c3b925600660003373ffffffffffffffffffffffffffffffffffffffff1673ffffffffffffffffffffffffffffffffffffffff16815260200190815260200160002060008773ffffffffffffffffffffffffffffffffffffffff1673ffffffffffffffffffffffffffffffffffffffff1681526020019081526020016000205460405161095191906112bb565b60405180910390a36001905092915050565b600080600560003373ffffffffffffffffffffffffffffffffffffffff1673ffffffffffffffffffffffffffffffffffffffff16815260200190815260200160002054116109e6576040517f08c379a00000000000000000000000000000000000000000000000000000000081526004016109dd90611681565b60405180910390fd5b81600560003373ffffffffffffffffffffffffffffffffffffffff1673ffffffffffffffffffffffffffffffffffffffff168152602001908152602001600020541015610a68576040517f08c379a0000000000000000000000000000000000000000000000000000000008152600401610a5f906116ed565b60405180910390fd5b81600560003373ffffffffffffffffffffffffffffffffffffffff1673ffffffffffffffffffffffffffffffffffffffff1681526020019081526020016000206000828254610ab791906115cd565b925050819055508160036000828254610ad091906115cd565b92505081905550600073ffffffffffffffffffffffffffffffffffffffff163373ffffffffffffffffffffffffffffffffffffffff167fddf252ad1be2c89b69c2b068fc378daa952ba7f163c4a11628f55a4df523b3ef84604051610b3591906112bb565b60405180910390a360019050919050565b60056020528060005260406000206000915090505481565b60018054610b6b90611429565b80601f0160208091040260200160405190810160405280929190818152602001828054610b9790611429565b8015610be45780601f10610bb957610100808354040283529160200191610be4565b820191906000526020600020905b815481529060010190602001808311610bc757829003601f168201915b505050505081565b600081600660003373ffffffffffffffffffffffffffffffffffffffff1673ffffffffffffffffffffffffffffffffffffffff16815260200190815260200160002060008573ffffffffffffffffffffffffffffffffffffffff1673ffffffffffffffffffffffffffffffffffffffff168152602001908152602001600020541015610cad576040517f08c379a0000000000000000000000000000000000000000000000000000000008152600401610ca490611759565b60405180910390fd5b81600660003373ffffffffffffffffffffffffffffffffffffffff1673ffffffffffffffffffffffffffffffffffffffff16815260200190815260200160002060008573ffffffffffffffffffffffffffffffffffffffff1673ffffffffffffffffffffffffffffffffffffffff1681526020019081526020016000206000828254610d3991906115cd565b925050819055508273ffffffffffffffffffffffffffffffffffffffff163373ffffffffffffffffffffffffffffffffffffffff167f8c5be1e5ebec7d5bd14f71427d1e84f3dd0314c0f7b2291e5b200ac8c7c3b925600660003373ffffffffffffffffffffffffffffffffffffffff1673ffffffffffffffffffffffffffffffffffffffff16815260200190815260200160002060008773ffffffffffffffffffffffffffffffffffffffff1673ffffffffffffffffffffffffffffffffffffffff16815260200190815260200160002054604051610e1991906112bb565b60405180910390a36001905092915050565b60008073ffffffffffffffffffffffffffffffffffffffff168373ffffffffffffffffffffffffffffffffffffffff1603610e9b576040517f08c379a0000000000000000000000000000000000000000000000000000000008152600401610e92906114a6565b60405180910390fd5b81600560003373ffffffffffffffffffffffffffffffffffffffff1673ffffffffffffffffffffffffffffffffffffffff168152602001908152602001600020541015610f1d576040517f08c379a0000000000000000000000000000000000000000000000000000000008152600401610f1490611512565b60405180910390fd5b81600560003373ffffffffffffffffffffffffffffffffffffffff1673ffffffffffffffffffffffffffffffffffffffff1681526020019081526020016000206000828254610f6c91906115cd565b9250508190555081600560008573ffffffffffffffffffffffffffffffffffffffff1673ffffffffffffffffffffffffffffffffffffffff1681526020019081526020016000206000828254610fc29190611601565b925050819055508273ffffffffffffffffffffffffffffffffffffffff163373ffffffffffffffffffffffffffffffffffffffff167fddf252ad1be2c89b69c2b068fc378daa952ba7f163c4a11628f55a4df523b3ef8460405161102691906112bb565b60405180910390a36001905092915050565b6004805461104590611429565b80601f016020809104026020016040519081016040528092919081815260200182805461107190611429565b80156110be5780601f10611093576101008083540402835291602001916110be565b820191906000526020600020905b8154815290600101906020018083116110a157829003601f168201915b505050505081565b6006602052816000526040600020602052806000526040600020600091509150505481565b600081519050919050565b600082825260208201905092915050565b60005b8381101561112557808201518184015260208101905061110a565b60008484015250505050565b6000601f19601f8301169050919050565b600061114d826110eb565b61115781856110f6565b9350611167818560208601611107565b61117081611131565b840191505092915050565b600060208201905081810360008301526111958184611142565b905092915050565b600080fd5b600073ffffffffffffffffffffffffffffffffffffffff82169050919050565b60006111cd826111a2565b9050919050565b6111dd816111c2565b81146111e857600080fd5b50565b6000813590506111fa816111d4565b92915050565b6000819050919050565b61121381611200565b811461121e57600080fd5b50565b6000813590506112308161120a565b92915050565b6000806040838503121561124d5761124c61119d565b5b600061125b858286016111eb565b925050602061126c85828601611221565b9150509250929050565b60008115159050919050565b61128b81611276565b82525050565b60006020820190506112a66000830184611282565b92915050565b6112b581611200565b82525050565b60006020820190506112d060008301846112ac565b92915050565b6000806000606084860312156112ef576112ee61119d565b5b60006112fd868287016111eb565b935050602061130e868287016111eb565b925050604061131f86828701611221565b9150509250925092565b600060ff82169050919050565b61133f81611329565b82525050565b600060208201905061135a6000830184611336565b92915050565b6000602082840312156113765761137561119d565b5b600061138484828501611221565b91505092915050565b6000602082840312156113a3576113a261119d565b5b60006113b1848285016111eb565b91505092915050565b600080604083850312156113d1576113d061119d565b5b60006113df858286016111eb565b92505060206113f0858286016111eb565b9150509250929050565b7f4e487b7100000000000000000000000000000000000000000000000000000000600052602260045260246000fd5b6000600282049050600182168061144157607f821691505b602082108103611454576114536113fa565b5b50919050565b7f43616e6e6f74207472616e7366657220746f207a65726f206164647265737300600082015250565b6000611490601f836110f6565b915061149b8261145a565b602082019050919050565b600060208201905081810360008301526114bf81611483565b9050919050565b7f596574657273697a2062616b6979650000000000000000000000000000000000600082015250565b60006114fc600f836110f6565b9150611507826114c6565b602082019050919050565b6000602082019050818103600083015261152b816114ef565b9050919050565b7f497a696e20766572696c656e206d696b7461726920617369796f720000000000600082015250565b6000611568601b836110f6565b915061157382611532565b602082019050919050565b600060208201905081810360008301526115978161155b565b9050919050565b7f4e487b7100000000000000000000000000000000000000000000000000000000600052601160045260246000fd5b60006115d882611200565b91506115e383611200565b92508282039050818111156115fb576115fa61159e565b5b92915050565b600061160c82611200565b915061161783611200565b925082820190508082111561162f5761162e61159e565b5b92915050565b7f4163636f756e7420686173207a65726f2062616c616e63650000000000000000600082015250565b600061166b6018836110f6565b915061167682611635565b602082019050919050565b6000602082019050818103600083015261169a8161165e565b9050919050565b7f496e73756666696369656e742062616c616e636520746f206275726e00000000600082015250565b60006116d7601c836110f6565b91506116e2826116a1565b602082019050919050565b60006020820190508181036000830152611706816116ca565b9050919050565b7f416c6c6f77616e636520746f6f206c6f7720746f206465637265617365000000600082015250565b6000611743601d836110f6565b915061174e8261170d565b602082019050919050565b6000602082019050818103600083015261177281611736565b905091905056fea26469706673582212206e46993f2f3d585e782a0208e42d1dedaf34993de666e41a875f43d511646d7864736f6c63430008120033a26469706673582212205cfd1fac10f7e47bce817410da00fd1147d67b1b1aa49fb0107bb542d9e89e5e64736f6c63430008120033",
			"opcodes": "PUSH1 0x80 PUSH1 0x40 MSTORE CALLVALUE DUP1 ISZERO PUSH3 0x11 JUMPI PUSH1 0x0 DUP1 REVERT JUMPDEST POP PUSH1 0x40 MLOAD PUSH3 0x3EC4 CODESIZE SUB DUP1 PUSH3 0x3EC4 DUP4 CODECOPY DUP2 DUP2 ADD PUSH1 0x40 MSTORE DUP2 ADD SWAP1 PUSH3 0x37 SWAP2 SWAP1 PUSH3 0x1D3 JUMP JUMPDEST PUSH1 0x2 DUP4 SWAP1 DUP1 PUSH1 0x1 DUP2 SLOAD ADD DUP1 DUP3 SSTORE DUP1 SWAP2 POP POP PUSH1 0x1 SWAP1 SUB SWAP1 PUSH1 0x0 MSTORE PUSH1 0x20 PUSH1 0x0 KECCAK256 ADD PUSH1 0x0 SWAP1 SWAP2 SWAP1 SWAP2 SWAP1 SWAP2 PUSH2 0x100 EXP DUP2 SLOAD DUP2 PUSH20 0xFFFFFFFFFFFFFFFFFFFFFFFFFFFFFFFFFFFFFFFF MUL NOT AND SWAP1 DUP4 PUSH20 0xFFFFFFFFFFFFFFFFFFFFFFFFFFFFFFFFFFFFFFFF AND MUL OR SWAP1 SSTORE POP PUSH1 0x2 DUP3 SWAP1 DUP1 PUSH1 0x1 DUP2 SLOAD ADD DUP1 DUP3 SSTORE DUP1 SWAP2 POP POP PUSH1 0x1 SWAP1 SUB SWAP1 PUSH1 0x0 MSTORE PUSH1 0x20 PUSH1 0x0 KECCAK256 ADD PUSH1 0x0 SWAP1 SWAP2 SWAP1 SWAP2 SWAP1 SWAP2 PUSH2 0x100 EXP DUP2 SLOAD DUP2 PUSH20 0xFFFFFFFFFFFFFFFFFFFFFFFFFFFFFFFFFFFFFFFF MUL NOT AND SWAP1 DUP4 PUSH20 0xFFFFFFFFFFFFFFFFFFFFFFFFFFFFFFFFFFFFFFFF AND MUL OR SWAP1 SSTORE POP PUSH1 0x2 DUP2 SWAP1 DUP1 PUSH1 0x1 DUP2 SLOAD ADD DUP1 DUP3 SSTORE DUP1 SWAP2 POP POP PUSH1 0x1 SWAP1 SUB SWAP1 PUSH1 0x0 MSTORE PUSH1 0x20 PUSH1 0x0 KECCAK256 ADD PUSH1 0x0 SWAP1 SWAP2 SWAP1 SWAP2 SWAP1 SWAP2 PUSH2 0x100 EXP DUP2 SLOAD DUP2 PUSH20 0xFFFFFFFFFFFFFFFFFFFFFFFFFFFFFFFFFFFFFFFF MUL NOT AND SWAP1 DUP4 PUSH20 0xFFFFFFFFFFFFFFFFFFFFFFFFFFFFFFFFFFFFFFFF AND MUL OR SWAP1 SSTORE POP POP POP POP PUSH3 0x22F JUMP JUMPDEST PUSH1 0x0 DUP1 REVERT JUMPDEST PUSH1 0x0 PUSH20 0xFFFFFFFFFFFFFFFFFFFFFFFFFFFFFFFFFFFFFFFF DUP3 AND SWAP1 POP SWAP2 SWAP1 POP JUMP JUMPDEST PUSH1 0x0 PUSH3 0x19B DUP3 PUSH3 0x16E JUMP JUMPDEST SWAP1 POP SWAP2 SWAP1 POP JUMP JUMPDEST PUSH3 0x1AD DUP2 PUSH3 0x18E JUMP JUMPDEST DUP2 EQ PUSH3 0x1B9 JUMPI PUSH1 0x0 DUP1 REVERT JUMPDEST POP JUMP JUMPDEST PUSH1 0x0 DUP2 MLOAD SWAP1 POP PUSH3 0x1CD DUP2 PUSH3 0x1A2 JUMP JUMPDEST SWAP3 SWAP2 POP POP JUMP JUMPDEST PUSH1 0x0 DUP1 PUSH1 0x0 PUSH1 0x60 DUP5 DUP7 SUB SLT ISZERO PUSH3 0x1EF JUMPI PUSH3 0x1EE PUSH3 0x169 JUMP JUMPDEST JUMPDEST PUSH1 0x0 PUSH3 0x1FF DUP7 DUP3 DUP8 ADD PUSH3 0x1BC JUMP JUMPDEST SWAP4 POP POP PUSH1 0x20 PUSH3 0x212 DUP7 DUP3 DUP8 ADD PUSH3 0x1BC JUMP JUMPDEST SWAP3 POP POP PUSH1 0x40 PUSH3 0x225 DUP7 DUP3 DUP8 ADD PUSH3 0x1BC JUMP JUMPDEST SWAP2 POP POP SWAP3 POP SWAP3 POP SWAP3 JUMP JUMPDEST PUSH2 0x3C85 DUP1 PUSH3 0x23F PUSH1 0x0 CODECOPY PUSH1 0x0 RETURN INVALID PUSH1 0x80 PUSH1 0x40 MSTORE PUSH1 0x4 CALLDATASIZE LT PUSH3 0x7A JUMPI PUSH1 0x0 CALLDATALOAD PUSH1 0xE0 SHR DUP1 PUSH4 0x622AE7AA GT PUSH3 0x55 JUMPI DUP1 PUSH4 0x622AE7AA EQ PUSH3 0x123 JUMPI DUP1 PUSH4 0x7093F47F EQ PUSH3 0x153 JUMPI DUP1 PUSH4 0xA56922A8 EQ PUSH3 0x197 JUMPI DUP1 PUSH4 0xEC81AADB EQ PUSH3 0x1B7 JUMPI PUSH3 0x7A JUMP JUMPDEST DUP1 PUSH4 0x2BA996A5 EQ PUSH3 0x7F JUMPI DUP1 PUSH4 0x49A2104D EQ PUSH3 0xAF JUMPI DUP1 PUSH4 0x51FE9EFF EQ PUSH3 0xDF JUMPI JUMPDEST PUSH1 0x0 DUP1 REVERT JUMPDEST CALLVALUE DUP1 ISZERO PUSH3 0x8C JUMPI PUSH1 0x0 DUP1 REVERT JUMPDEST POP PUSH3 0x97 PUSH3 0x1FB JUMP JUMPDEST PUSH1 0x40 MLOAD PUSH3 0xA6 SWAP2 SWAP1 PUSH3 0xCD9 JUMP JUMPDEST PUSH1 0x40 MLOAD DUP1 SWAP2 SUB SWAP1 RETURN JUMPDEST CALLVALUE DUP1 ISZERO PUSH3 0xBC JUMPI PUSH1 0x0 DUP1 REVERT JUMPDEST POP PUSH3 0xC7 PUSH3 0x489 JUMP JUMPDEST PUSH1 0x40 MLOAD PUSH3 0xD6 SWAP2 SWAP1 PUSH3 0xD18 JUMP JUMPDEST PUSH1 0x40 MLOAD DUP1 SWAP2 SUB SWAP1 RETURN JUMPDEST CALLVALUE DUP1 ISZERO PUSH3 0xEC JUMPI PUSH1 0x0 DUP1 REVERT JUMPDEST POP PUSH3 0x10B PUSH1 0x4 DUP1 CALLDATASIZE SUB DUP2 ADD SWAP1 PUSH3 0x105 SWAP2 SWAP1 PUSH3 0xD7A JUMP JUMPDEST PUSH3 0x496 JUMP JUMPDEST PUSH1 0x40 MLOAD PUSH3 0x11A SWAP2 SWAP1 PUSH3 0xDD1 JUMP JUMPDEST PUSH1 0x40 MLOAD DUP1 SWAP2 SUB SWAP1 RETURN JUMPDEST CALLVALUE DUP1 ISZERO PUSH3 0x130 JUMPI PUSH1 0x0 DUP1 REVERT JUMPDEST POP PUSH3 0x13B PUSH3 0x4D6 JUMP JUMPDEST PUSH1 0x40 MLOAD PUSH3 0x14A SWAP2 SWAP1 PUSH3 0xCD9 JUMP JUMPDEST PUSH1 0x40 MLOAD DUP1 SWAP2 SUB SWAP1 RETURN JUMPDEST CALLVALUE DUP1 ISZERO PUSH3 0x160 JUMPI PUSH1 0x0 DUP1 REVERT JUMPDEST POP PUSH3 0x17F PUSH1 0x4 DUP1 CALLDATASIZE SUB DUP2 ADD SWAP1 PUSH3 0x179 SWAP2 SWAP1 PUSH3 0xE1F JUMP JUMPDEST PUSH3 0x566 JUMP JUMPDEST PUSH1 0x40 MLOAD PUSH3 0x18E SWAP2 SWAP1 PUSH3 0xE6E JUMP JUMPDEST PUSH1 0x40 MLOAD DUP1 SWAP2 SUB SWAP1 RETURN JUMPDEST PUSH3 0x1B5 PUSH1 0x4 DUP1 CALLDATASIZE SUB DUP2 ADD SWAP1 PUSH3 0x1AF SWAP2 SWAP1 PUSH3 0x105C JUMP JUMPDEST PUSH3 0x586 JUMP JUMPDEST STOP JUMPDEST CALLVALUE DUP1 ISZERO PUSH3 0x1C4 JUMPI PUSH1 0x0 DUP1 REVERT JUMPDEST POP PUSH3 0x1E3 PUSH1 0x4 DUP1 CALLDATASIZE SUB DUP2 ADD SWAP1 PUSH3 0x1DD SWAP2 SWAP1 PUSH3 0xD7A JUMP JUMPDEST PUSH3 0xB89 JUMP JUMPDEST PUSH1 0x40 MLOAD PUSH3 0x1F2 SWAP2 SWAP1 PUSH3 0x1166 JUMP JUMPDEST PUSH1 0x40 MLOAD DUP1 SWAP2 SUB SWAP1 RETURN JUMPDEST PUSH1 0x60 PUSH1 0x0 DUP1 PUSH1 0x0 SWAP1 POP JUMPDEST PUSH1 0x0 DUP1 SLOAD SWAP1 POP DUP2 LT ISZERO PUSH3 0x2CD JUMPI PUSH1 0x1 PUSH1 0x0 DUP1 DUP4 DUP2 SLOAD DUP2 LT PUSH3 0x22D JUMPI PUSH3 0x22C PUSH3 0x1183 JUMP JUMPDEST JUMPDEST SWAP1 PUSH1 0x0 MSTORE PUSH1 0x20 PUSH1 0x0 KECCAK256 ADD PUSH1 0x0 SWAP1 SLOAD SWAP1 PUSH2 0x100 EXP SWAP1 DIV PUSH20 0xFFFFFFFFFFFFFFFFFFFFFFFFFFFFFFFFFFFFFFFF AND PUSH20 0xFFFFFFFFFFFFFFFFFFFFFFFFFFFFFFFFFFFFFFFF AND PUSH20 0xFFFFFFFFFFFFFFFFFFFFFFFFFFFFFFFFFFFFFFFF AND DUP2 MSTORE PUSH1 0x20 ADD SWAP1 DUP2 MSTORE PUSH1 0x20 ADD PUSH1 0x0 KECCAK256 PUSH1 0x0 SWAP1 SLOAD SWAP1 PUSH2 0x100 EXP SWAP1 DIV PUSH1 0xFF AND ISZERO PUSH3 0x2B7 JUMPI DUP2 DUP1 PUSH3 0x2B3 SWAP1 PUSH3 0x11E1 JUMP JUMPDEST SWAP3 POP POP JUMPDEST DUP1 DUP1 PUSH3 0x2C4 SWAP1 PUSH3 0x11E1 JUMP JUMPDEST SWAP2 POP POP PUSH3 0x205 JUMP JUMPDEST POP PUSH1 0x0 DUP2 PUSH8 0xFFFFFFFFFFFFFFFF DUP2 GT ISZERO PUSH3 0x2ED JUMPI PUSH3 0x2EC PUSH3 0xEA6 JUMP JUMPDEST JUMPDEST PUSH1 0x40 MLOAD SWAP1 DUP1 DUP3 MSTORE DUP1 PUSH1 0x20 MUL PUSH1 0x20 ADD DUP3 ADD PUSH1 0x40 MSTORE DUP1 ISZERO PUSH3 0x31C JUMPI DUP2 PUSH1 0x20 ADD PUSH1 0x20 DUP3 MUL DUP1 CALLDATASIZE DUP4 CALLDATACOPY DUP1 DUP3 ADD SWAP2 POP POP SWAP1 POP JUMPDEST POP SWAP1 POP PUSH1 0x0 DUP1 PUSH1 0x0 SWAP1 POP JUMPDEST PUSH1 0x0 DUP1 SLOAD SWAP1 POP DUP2 LT ISZERO PUSH3 0x47F JUMPI PUSH1 0x1 PUSH1 0x0 DUP1 DUP4 DUP2 SLOAD DUP2 LT PUSH3 0x34F JUMPI PUSH3 0x34E PUSH3 0x1183 JUMP JUMPDEST JUMPDEST SWAP1 PUSH1 0x0 MSTORE PUSH1 0x20 PUSH1 0x0 KECCAK256 ADD PUSH1 0x0 SWAP1 SLOAD SWAP1 PUSH2 0x100 EXP SWAP1 DIV PUSH20 0xFFFFFFFFFFFFFFFFFFFFFFFFFFFFFFFFFFFFFFFF AND PUSH20 0xFFFFFFFFFFFFFFFFFFFFFFFFFFFFFFFFFFFFFFFF AND PUSH20 0xFFFFFFFFFFFFFFFFFFFFFFFFFFFFFFFFFFFFFFFF AND DUP2 MSTORE PUSH1 0x20 ADD SWAP1 DUP2 MSTORE PUSH1 0x20 ADD PUSH1 0x0 KECCAK256 PUSH1 0x0 SWAP1 SLOAD SWAP1 PUSH2 0x100 EXP SWAP1 DIV PUSH1 0xFF AND ISZERO PUSH3 0x469 JUMPI PUSH1 0x0 DUP2 DUP2 SLOAD DUP2 LT PUSH3 0x3DF JUMPI PUSH3 0x3DE PUSH3 0x1183 JUMP JUMPDEST JUMPDEST SWAP1 PUSH1 0x0 MSTORE PUSH1 0x20 PUSH1 0x0 KECCAK256 ADD PUSH1 0x0 SWAP1 SLOAD SWAP1 PUSH2 0x100 EXP SWAP1 DIV PUSH20 0xFFFFFFFFFFFFFFFFFFFFFFFFFFFFFFFFFFFFFFFF AND DUP4 DUP4 DUP1 PUSH3 0x418 SWAP1 PUSH3 0x11E1 JUMP JUMPDEST SWAP5 POP DUP2 MLOAD DUP2 LT PUSH3 0x42E JUMPI PUSH3 0x42D PUSH3 0x1183 JUMP JUMPDEST JUMPDEST PUSH1 0x20 MUL PUSH1 0x20 ADD ADD SWAP1 PUSH20 0xFFFFFFFFFFFFFFFFFFFFFFFFFFFFFFFFFFFFFFFF AND SWAP1 DUP2 PUSH20 0xFFFFFFFFFFFFFFFFFFFFFFFFFFFFFFFFFFFFFFFF AND DUP2 MSTORE POP POP JUMPDEST DUP1 DUP1 PUSH3 0x476 SWAP1 PUSH3 0x11E1 JUMP JUMPDEST SWAP2 POP POP PUSH3 0x327 JUMP JUMPDEST POP DUP2 SWAP4 POP POP POP POP SWAP1 JUMP JUMPDEST PUSH9 0x34957444B840E80000 DUP2 JUMP JUMPDEST PUSH1 0x2 DUP2 DUP2 SLOAD DUP2 LT PUSH3 0x4A7 JUMPI PUSH1 0x0 DUP1 REVERT JUMPDEST SWAP1 PUSH1 0x0 MSTORE PUSH1 0x20 PUSH1 0x0 KECCAK256 ADD PUSH1 0x0 SWAP2 POP SLOAD SWAP1 PUSH2 0x100 EXP SWAP1 DIV PUSH20 0xFFFFFFFFFFFFFFFFFFFFFFFFFFFFFFFFFFFFFFFF AND DUP2 JUMP JUMPDEST PUSH1 0x60 PUSH1 0x0 DUP1 SLOAD DUP1 PUSH1 0x20 MUL PUSH1 0x20 ADD PUSH1 0x40 MLOAD SWAP1 DUP2 ADD PUSH1 0x40 MSTORE DUP1 SWAP3 SWAP2 SWAP1 DUP2 DUP2 MSTORE PUSH1 0x20 ADD DUP3 DUP1 SLOAD DUP1 ISZERO PUSH3 0x55C JUMPI PUSH1 0x20 MUL DUP3 ADD SWAP2 SWAP1 PUSH1 0x0 MSTORE PUSH1 0x20 PUSH1 0x0 KECCAK256 SWAP1 JUMPDEST DUP2 PUSH1 0x0 SWAP1 SLOAD SWAP1 PUSH2 0x100 EXP SWAP1 DIV PUSH20 0xFFFFFFFFFFFFFFFFFFFFFFFFFFFFFFFFFFFFFFFF AND PUSH20 0xFFFFFFFFFFFFFFFFFFFFFFFFFFFFFFFFFFFFFFFF AND DUP2 MSTORE PUSH1 0x20 ADD SWAP1 PUSH1 0x1 ADD SWAP1 DUP1 DUP4 GT PUSH3 0x511 JUMPI JUMPDEST POP POP POP POP POP SWAP1 POP SWAP1 JUMP JUMPDEST PUSH1 0x1 PUSH1 0x20 MSTORE DUP1 PUSH1 0x0 MSTORE PUSH1 0x40 PUSH1 0x0 KECCAK256 PUSH1 0x0 SWAP2 POP SLOAD SWAP1 PUSH2 0x100 EXP SWAP1 DIV PUSH1 0xFF AND DUP2 JUMP JUMPDEST PUSH9 0x34957444B840E80000 CALLVALUE EQ PUSH3 0x5D4 JUMPI PUSH1 0x40 MLOAD PUSH32 0x8C379A000000000000000000000000000000000000000000000000000000000 DUP2 MSTORE PUSH1 0x4 ADD PUSH3 0x5CB SWAP1 PUSH3 0x12B5 JUMP JUMPDEST PUSH1 0x40 MLOAD DUP1 SWAP2 SUB SWAP1 REVERT JUMPDEST PUSH1 0x0 PUSH2 0x3E8 PUSH2 0x258 CALLVALUE PUSH3 0x5E9 SWAP2 SWAP1 PUSH3 0x12D7 JUMP JUMPDEST PUSH3 0x5F5 SWAP2 SWAP1 PUSH3 0x1351 JUMP JUMPDEST SWAP1 POP PUSH1 0x0 PUSH2 0x3E8 PUSH1 0xC8 CALLVALUE PUSH3 0x60B SWAP2 SWAP1 PUSH3 0x12D7 JUMP JUMPDEST PUSH3 0x617 SWAP2 SWAP1 PUSH3 0x1351 JUMP JUMPDEST SWAP1 POP PUSH1 0x0 PUSH2 0x3E8 PUSH1 0xC8 CALLVALUE PUSH3 0x62D SWAP2 SWAP1 PUSH3 0x12D7 JUMP JUMPDEST PUSH3 0x639 SWAP2 SWAP1 PUSH3 0x1351 JUMP JUMPDEST SWAP1 POP PUSH1 0x2 PUSH1 0x0 DUP2 SLOAD DUP2 LT PUSH3 0x653 JUMPI PUSH3 0x652 PUSH3 0x1183 JUMP JUMPDEST JUMPDEST SWAP1 PUSH1 0x0 MSTORE PUSH1 0x20 PUSH1 0x0 KECCAK256 ADD PUSH1 0x0 SWAP1 SLOAD SWAP1 PUSH2 0x100 EXP SWAP1 DIV PUSH20 0xFFFFFFFFFFFFFFFFFFFFFFFFFFFFFFFFFFFFFFFF AND PUSH20 0xFFFFFFFFFFFFFFFFFFFFFFFFFFFFFFFFFFFFFFFF AND PUSH2 0x8FC DUP5 SWAP1 DUP2 ISZERO MUL SWAP1 PUSH1 0x40 MLOAD PUSH1 0x0 PUSH1 0x40 MLOAD DUP1 DUP4 SUB DUP2 DUP6 DUP9 DUP9 CALL SWAP4 POP POP POP POP ISZERO DUP1 ISZERO PUSH3 0x6C4 JUMPI RETURNDATASIZE PUSH1 0x0 DUP1 RETURNDATACOPY RETURNDATASIZE PUSH1 0x0 REVERT JUMPDEST POP PUSH1 0x2 PUSH1 0x1 DUP2 SLOAD DUP2 LT PUSH3 0x6DD JUMPI PUSH3 0x6DC PUSH3 0x1183 JUMP JUMPDEST JUMPDEST SWAP1 PUSH1 0x0 MSTORE PUSH1 0x20 PUSH1 0x0 KECCAK256 ADD PUSH1 0x0 SWAP1 SLOAD SWAP1 PUSH2 0x100 EXP SWAP1 DIV PUSH20 0xFFFFFFFFFFFFFFFFFFFFFFFFFFFFFFFFFFFFFFFF AND PUSH20 0xFFFFFFFFFFFFFFFFFFFFFFFFFFFFFFFFFFFFFFFF AND PUSH2 0x8FC DUP4 SWAP1 DUP2 ISZERO MUL SWAP1 PUSH1 0x40 MLOAD PUSH1 0x0 PUSH1 0x40 MLOAD DUP1 DUP4 SUB DUP2 DUP6 DUP9 DUP9 CALL SWAP4 POP POP POP POP ISZERO DUP1 ISZERO PUSH3 0x74E JUMPI RETURNDATASIZE PUSH1 0x0 DUP1 RETURNDATACOPY RETURNDATASIZE PUSH1 0x0 REVERT JUMPDEST POP PUSH1 0x2 DUP1 DUP2 SLOAD DUP2 LT PUSH3 0x766 JUMPI PUSH3 0x765 PUSH3 0x1183 JUMP JUMPDEST JUMPDEST SWAP1 PUSH1 0x0 MSTORE PUSH1 0x20 PUSH1 0x0 KECCAK256 ADD PUSH1 0x0 SWAP1 SLOAD SWAP1 PUSH2 0x100 EXP SWAP1 DIV PUSH20 0xFFFFFFFFFFFFFFFFFFFFFFFFFFFFFFFFFFFFFFFF AND PUSH20 0xFFFFFFFFFFFFFFFFFFFFFFFFFFFFFFFFFFFFFFFF AND PUSH2 0x8FC DUP3 SWAP1 DUP2 ISZERO MUL SWAP1 PUSH1 0x40 MLOAD PUSH1 0x0 PUSH1 0x40 MLOAD DUP1 DUP4 SUB DUP2 DUP6 DUP9 DUP9 CALL SWAP4 POP POP POP POP ISZERO DUP1 ISZERO PUSH3 0x7D7 JUMPI RETURNDATASIZE PUSH1 0x0 DUP1 RETURNDATACOPY RETURNDATASIZE PUSH1 0x0 REVERT JUMPDEST POP PUSH1 0x5 DUP10 MLOAD LT ISZERO DUP1 ISZERO PUSH3 0x7ED JUMPI POP PUSH1 0x14 DUP10 MLOAD GT ISZERO JUMPDEST PUSH3 0x82F JUMPI PUSH1 0x40 MLOAD PUSH32 0x8C379A000000000000000000000000000000000000000000000000000000000 DUP2 MSTORE PUSH1 0x4 ADD PUSH3 0x826 SWAP1 PUSH3 0x13FF JUMP JUMPDEST PUSH1 0x40 MLOAD DUP1 SWAP2 SUB SWAP1 REVERT JUMPDEST PUSH1 0x3 DUP9 MLOAD LT ISZERO DUP1 ISZERO PUSH3 0x844 JUMPI POP PUSH1 0x5 DUP9 MLOAD GT ISZERO JUMPDEST PUSH3 0x886 JUMPI PUSH1 0x40 MLOAD PUSH32 0x8C379A000000000000000000000000000000000000000000000000000000000 DUP2 MSTORE PUSH1 0x4 ADD PUSH3 0x87D SWAP1 PUSH3 0x1497 JUMP JUMPDEST PUSH1 0x40 MLOAD DUP1 SWAP2 SUB SWAP1 REVERT JUMPDEST PUSH1 0x2 DUP7 PUSH1 0xFF AND LT ISZERO DUP1 ISZERO PUSH3 0x89F JUMPI POP PUSH1 0x12 DUP7 PUSH1 0xFF AND GT ISZERO JUMPDEST PUSH3 0x8E1 JUMPI PUSH1 0x40 MLOAD PUSH32 0x8C379A000000000000000000000000000000000000000000000000000000000 DUP2 MSTORE PUSH1 0x4 ADD PUSH3 0x8D8 SWAP1 PUSH3 0x152F JUMP JUMPDEST PUSH1 0x40 MLOAD DUP1 SWAP2 SUB SWAP1 REVERT JUMPDEST PUSH1 0x32 DUP6 MLOAD GT ISZERO PUSH3 0x929 JUMPI PUSH1 0x40 MLOAD PUSH32 0x8C379A000000000000000000000000000000000000000000000000000000000 DUP2 MSTORE PUSH1 0x4 ADD PUSH3 0x920 SWAP1 PUSH3 0x15C7 JUMP JUMPDEST PUSH1 0x40 MLOAD DUP1 SWAP2 SUB SWAP1 REVERT JUMPDEST PUSH3 0x186A0 DUP8 LT ISZERO DUP1 ISZERO PUSH3 0x942 JUMPI POP PUSH5 0x174876E800 DUP8 GT ISZERO JUMPDEST PUSH3 0x984 JUMPI PUSH1 0x40 MLOAD PUSH32 0x8C379A000000000000000000000000000000000000000000000000000000000 DUP2 MSTORE PUSH1 0x4 ADD PUSH3 0x97B SWAP1 PUSH3 0x165F JUMP JUMPDEST PUSH1 0x40 MLOAD DUP1 SWAP2 SUB SWAP1 REVERT JUMPDEST PUSH1 0x0 DUP7 PUSH1 0xFF AND PUSH1 0xA PUSH3 0x998 SWAP2 SWAP1 PUSH3 0x17D5 JUMP JUMPDEST DUP9 PUSH3 0x9A5 SWAP2 SWAP1 PUSH3 0x12D7 JUMP JUMPDEST SWAP1 POP DUP8 DUP8 PUSH1 0xFF AND PUSH1 0xA PUSH3 0x9BA SWAP2 SWAP1 PUSH3 0x17D5 JUMP JUMPDEST DUP3 PUSH3 0x9C7 SWAP2 SWAP1 PUSH3 0x1351 JUMP JUMPDEST EQ PUSH3 0xA0A JUMPI PUSH1 0x40 MLOAD PUSH32 0x8C379A000000000000000000000000000000000000000000000000000000000 DUP2 MSTORE PUSH1 0x4 ADD PUSH3 0xA01 SWAP1 PUSH3 0x189C JUMP JUMPDEST PUSH1 0x40 MLOAD DUP1 SWAP2 SUB SWAP1 REVERT JUMPDEST PUSH1 0x0 DUP11 DUP11 DUP11 DUP11 DUP11 CALLER PUSH1 0x40 MLOAD PUSH3 0xA20 SWAP1 PUSH3 0xBC9 JUMP JUMPDEST PUSH3 0xA31 SWAP7 SWAP6 SWAP5 SWAP4 SWAP3 SWAP2 SWAP1 PUSH3 0x1947 JUMP JUMPDEST PUSH1 0x40 MLOAD DUP1 SWAP2 SUB SWAP1 PUSH1 0x0 CREATE DUP1 ISZERO DUP1 ISZERO PUSH3 0xA4E JUMPI RETURNDATASIZE PUSH1 0x0 DUP1 RETURNDATACOPY RETURNDATASIZE PUSH1 0x0 REVERT JUMPDEST POP SWAP1 POP PUSH1 0x0 DUP2 SWAP1 DUP1 PUSH1 0x1 DUP2 SLOAD ADD DUP1 DUP3 SSTORE DUP1 SWAP2 POP POP PUSH1 0x1 SWAP1 SUB SWAP1 PUSH1 0x0 MSTORE PUSH1 0x20 PUSH1 0x0 KECCAK256 ADD PUSH1 0x0 SWAP1 SWAP2 SWAP1 SWAP2 SWAP1 SWAP2 PUSH2 0x100 EXP DUP2 SLOAD DUP2 PUSH20 0xFFFFFFFFFFFFFFFFFFFFFFFFFFFFFFFFFFFFFFFF MUL NOT AND SWAP1 DUP4 PUSH20 0xFFFFFFFFFFFFFFFFFFFFFFFFFFFFFFFFFFFFFFFF AND MUL OR SWAP1 SSTORE POP DUP6 PUSH1 0x1 PUSH1 0x0 DUP4 PUSH20 0xFFFFFFFFFFFFFFFFFFFFFFFFFFFFFFFFFFFFFFFF AND PUSH20 0xFFFFFFFFFFFFFFFFFFFFFFFFFFFFFFFFFFFFFFFF AND DUP2 MSTORE PUSH1 0x20 ADD SWAP1 DUP2 MSTORE PUSH1 0x20 ADD PUSH1 0x0 KECCAK256 PUSH1 0x0 PUSH2 0x100 EXP DUP2 SLOAD DUP2 PUSH1 0xFF MUL NOT AND SWAP1 DUP4 ISZERO ISZERO MUL OR SWAP1 SSTORE POP CALLER PUSH20 0xFFFFFFFFFFFFFFFFFFFFFFFFFFFFFFFFFFFFFFFF AND DUP2 PUSH20 0xFFFFFFFFFFFFFFFFFFFFFFFFFFFFFFFFFFFFFFFF AND PUSH32 0x4ECB2712E5ED1CA5D8EFC9F6F5B82C8054A06BB82DE7EA1DEF5E4F963173F291 DUP14 DUP14 DUP14 DUP14 DUP14 DUP14 PUSH1 0x40 MLOAD PUSH3 0xB74 SWAP7 SWAP6 SWAP5 SWAP4 SWAP3 SWAP2 SWAP1 PUSH3 0x19C9 JUMP JUMPDEST PUSH1 0x40 MLOAD DUP1 SWAP2 SUB SWAP1 LOG3 POP POP POP POP POP POP POP POP POP POP POP JUMP JUMPDEST PUSH1 0x0 DUP2 DUP2 SLOAD DUP2 LT PUSH3 0xB9A JUMPI PUSH1 0x0 DUP1 REVERT JUMPDEST SWAP1 PUSH1 0x0 MSTORE PUSH1 0x20 PUSH1 0x0 KECCAK256 ADD PUSH1 0x0 SWAP2 POP SLOAD SWAP1 PUSH2 0x100 EXP SWAP1 DIV PUSH20 0xFFFFFFFFFFFFFFFFFFFFFFFFFFFFFFFFFFFFFFFF AND DUP2 JUMP JUMPDEST PUSH2 0x2204 DUP1 PUSH3 0x1A4C DUP4 CODECOPY ADD SWAP1 JUMP JUMPDEST PUSH1 0x0 DUP2 MLOAD SWAP1 POP SWAP2 SWAP1 POP JUMP JUMPDEST PUSH1 0x0 DUP3 DUP3 MSTORE PUSH1 0x20 DUP3 ADD SWAP1 POP SWAP3 SWAP2 POP POP JUMP JUMPDEST PUSH1 0x0 DUP2 SWAP1 POP PUSH1 0x20 DUP3 ADD SWAP1 POP SWAP2 SWAP1 POP JUMP JUMPDEST PUSH1 0x0 PUSH20 0xFFFFFFFFFFFFFFFFFFFFFFFFFFFFFFFFFFFFFFFF DUP3 AND SWAP1 POP SWAP2 SWAP1 POP JUMP JUMPDEST PUSH1 0x0 PUSH3 0xC30 DUP3 PUSH3 0xC03 JUMP JUMPDEST SWAP1 POP SWAP2 SWAP1 POP JUMP JUMPDEST PUSH3 0xC42 DUP2 PUSH3 0xC23 JUMP JUMPDEST DUP3 MSTORE POP POP JUMP JUMPDEST PUSH1 0x0 PUSH3 0xC56 DUP4 DUP4 PUSH3 0xC37 JUMP JUMPDEST PUSH1 0x20 DUP4 ADD SWAP1 POP SWAP3 SWAP2 POP POP JUMP JUMPDEST PUSH1 0x0 PUSH1 0x20 DUP3 ADD SWAP1 POP SWAP2 SWAP1 POP JUMP JUMPDEST PUSH1 0x0 PUSH3 0xC7C DUP3 PUSH3 0xBD7 JUMP JUMPDEST PUSH3 0xC88 DUP2 DUP6 PUSH3 0xBE2 JUMP JUMPDEST SWAP4 POP PUSH3 0xC95 DUP4 PUSH3 0xBF3 JUMP JUMPDEST DUP1 PUSH1 0x0 JUMPDEST DUP4 DUP2 LT ISZERO PUSH3 0xCCC JUMPI DUP2 MLOAD PUSH3 0xCB0 DUP9 DUP3 PUSH3 0xC48 JUMP JUMPDEST SWAP8 POP PUSH3 0xCBD DUP4 PUSH3 0xC62 JUMP JUMPDEST SWAP3 POP POP PUSH1 0x1 DUP2 ADD SWAP1 POP PUSH3 0xC99 JUMP JUMPDEST POP DUP6 SWAP4 POP POP POP POP SWAP3 SWAP2 POP POP JUMP JUMPDEST PUSH1 0x0 PUSH1 0x20 DUP3 ADD SWAP1 POP DUP2 DUP2 SUB PUSH1 0x0 DUP4 ADD MSTORE PUSH3 0xCF5 DUP2 DUP5 PUSH3 0xC6F JUMP JUMPDEST SWAP1 POP SWAP3 SWAP2 POP POP JUMP JUMPDEST PUSH1 0x0 DUP2 SWAP1 POP SWAP2 SWAP1 POP JUMP JUMPDEST PUSH3 0xD12 DUP2 PUSH3 0xCFD JUMP JUMPDEST DUP3 MSTORE POP POP JUMP JUMPDEST PUSH1 0x0 PUSH1 0x20 DUP3 ADD SWAP1 POP PUSH3 0xD2F PUSH1 0x0 DUP4 ADD DUP5 PUSH3 0xD07 JUMP JUMPDEST SWAP3 SWAP2 POP POP JUMP JUMPDEST PUSH1 0x0 PUSH1 0x40 MLOAD SWAP1 POP SWAP1 JUMP JUMPDEST PUSH1 0x0 DUP1 REVERT JUMPDEST PUSH1 0x0 DUP1 REVERT JUMPDEST PUSH3 0xD54 DUP2 PUSH3 0xCFD JUMP JUMPDEST DUP2 EQ PUSH3 0xD60 JUMPI PUSH1 0x0 DUP1 REVERT JUMPDEST POP JUMP JUMPDEST PUSH1 0x0 DUP2 CALLDATALOAD SWAP1 POP PUSH3 0xD74 DUP2 PUSH3 0xD49 JUMP JUMPDEST SWAP3 SWAP2 POP POP JUMP JUMPDEST PUSH1 0x0 PUSH1 0x20 DUP3 DUP5 SUB SLT ISZERO PUSH3 0xD93 JUMPI PUSH3 0xD92 PUSH3 0xD3F JUMP JUMPDEST JUMPDEST PUSH1 0x0 PUSH3 0xDA3 DUP5 DUP3 DUP6 ADD PUSH3 0xD63 JUMP JUMPDEST SWAP2 POP POP SWAP3 SWAP2 POP POP JUMP JUMPDEST PUSH1 0x0 PUSH3 0xDB9 DUP3 PUSH3 0xC03 JUMP JUMPDEST SWAP1 POP SWAP2 SWAP1 POP JUMP JUMPDEST PUSH3 0xDCB DUP2 PUSH3 0xDAC JUMP JUMPDEST DUP3 MSTORE POP POP JUMP JUMPDEST PUSH1 0x0 PUSH1 0x20 DUP3 ADD SWAP1 POP PUSH3 0xDE8 PUSH1 0x0 DUP4 ADD DUP5 PUSH3 0xDC0 JUMP JUMPDEST SWAP3 SWAP2 POP POP JUMP JUMPDEST PUSH3 0xDF9 DUP2 PUSH3 0xC23 JUMP JUMPDEST DUP2 EQ PUSH3 0xE05 JUMPI PUSH1 0x0 DUP1 REVERT JUMPDEST POP JUMP JUMPDEST PUSH1 0x0 DUP2 CALLDATALOAD SWAP1 POP PUSH3 0xE19 DUP2 PUSH3 0xDEE JUMP JUMPDEST SWAP3 SWAP2 POP POP JUMP JUMPDEST PUSH1 0x0 PUSH1 0x20 DUP3 DUP5 SUB SLT ISZERO PUSH3 0xE38 JUMPI PUSH3 0xE37 PUSH3 0xD3F JUMP JUMPDEST JUMPDEST PUSH1 0x0 PUSH3 0xE48 DUP5 DUP3 DUP6 ADD PUSH3 0xE08 JUMP JUMPDEST SWAP2 POP POP SWAP3 SWAP2 POP POP JUMP JUMPDEST PUSH1 0x0 DUP2 ISZERO ISZERO SWAP1 POP SWAP2 SWAP1 POP JUMP JUMPDEST PUSH3 0xE68 DUP2 PUSH3 0xE51 JUMP JUMPDEST DUP3 MSTORE POP POP JUMP JUMPDEST PUSH1 0x0 PUSH1 0x20 DUP3 ADD SWAP1 POP PUSH3 0xE85 PUSH1 0x0 DUP4 ADD DUP5 PUSH3 0xE5D JUMP JUMPDEST SWAP3 SWAP2 POP POP JUMP JUMPDEST PUSH1 0x0 DUP1 REVERT JUMPDEST PUSH1 0x0 DUP1 REVERT JUMPDEST PUSH1 0x0 PUSH1 0x1F NOT PUSH1 0x1F DUP4 ADD AND SWAP1 POP SWAP2 SWAP1 POP JUMP JUMPDEST PUSH32 0x4E487B7100000000000000000000000000000000000000000000000000000000 PUSH1 0x0 MSTORE PUSH1 0x41 PUSH1 0x4 MSTORE PUSH1 0x24 PUSH1 0x0 REVERT JUMPDEST PUSH3 0xEE0 DUP3 PUSH3 0xE95 JUMP JUMPDEST DUP2 ADD DUP2 DUP2 LT PUSH8 0xFFFFFFFFFFFFFFFF DUP3 GT OR ISZERO PUSH3 0xF02 JUMPI PUSH3 0xF01 PUSH3 0xEA6 JUMP JUMPDEST JUMPDEST DUP1 PUSH1 0x40 MSTORE POP POP POP JUMP JUMPDEST PUSH1 0x0 PUSH3 0xF17 PUSH3 0xD35 JUMP JUMPDEST SWAP1 POP PUSH3 0xF25 DUP3 DUP3 PUSH3 0xED5 JUMP JUMPDEST SWAP2 SWAP1 POP JUMP JUMPDEST PUSH1 0x0 PUSH8 0xFFFFFFFFFFFFFFFF DUP3 GT ISZERO PUSH3 0xF48 JUMPI PUSH3 0xF47 PUSH3 0xEA6 JUMP JUMPDEST JUMPDEST PUSH3 0xF53 DUP3 PUSH3 0xE95 JUMP JUMPDEST SWAP1 POP PUSH1 0x20 DUP2 ADD SWAP1 POP SWAP2 SWAP1 POP JUMP JUMPDEST DUP3 DUP2 DUP4 CALLDATACOPY PUSH1 0x0 DUP4 DUP4 ADD MSTORE POP POP POP JUMP JUMPDEST PUSH1 0x0 PUSH3 0xF86 PUSH3 0xF80 DUP5 PUSH3 0xF2A JUMP JUMPDEST PUSH3 0xF0B JUMP JUMPDEST SWAP1 POP DUP3 DUP2 MSTORE PUSH1 0x20 DUP2 ADD DUP5 DUP5 DUP5 ADD GT ISZERO PUSH3 0xFA5 JUMPI PUSH3 0xFA4 PUSH3 0xE90 JUMP JUMPDEST JUMPDEST PUSH3 0xFB2 DUP5 DUP3 DUP6 PUSH3 0xF60 JUMP JUMPDEST POP SWAP4 SWAP3 POP POP POP JUMP JUMPDEST PUSH1 0x0 DUP3 PUSH1 0x1F DUP4 ADD SLT PUSH3 0xFD2 JUMPI PUSH3 0xFD1 PUSH3 0xE8B JUMP JUMPDEST JUMPDEST DUP2 CALLDATALOAD PUSH3 0xFE4 DUP5 DUP3 PUSH1 0x20 DUP7 ADD PUSH3 0xF6F JUMP JUMPDEST SWAP2 POP POP SWAP3 SWAP2 POP POP JUMP JUMPDEST PUSH1 0x0 PUSH1 0xFF DUP3 AND SWAP1 POP SWAP2 SWAP1 POP JUMP JUMPDEST PUSH3 0x1005 DUP2 PUSH3 0xFED JUMP JUMPDEST DUP2 EQ PUSH3 0x1011 JUMPI PUSH1 0x0 DUP1 REVERT JUMPDEST POP JUMP JUMPDEST PUSH1 0x0 DUP2 CALLDATALOAD SWAP1 POP PUSH3 0x1025 DUP2 PUSH3 0xFFA JUMP JUMPDEST SWAP3 SWAP2 POP POP JUMP JUMPDEST PUSH3 0x1036 DUP2 PUSH3 0xE51 JUMP JUMPDEST DUP2 EQ PUSH3 0x1042 JUMPI PUSH1 0x0 DUP1 REVERT JUMPDEST POP JUMP JUMPDEST PUSH1 0x0 DUP2 CALLDATALOAD SWAP1 POP PUSH3 0x1056 DUP2 PUSH3 0x102B JUMP JUMPDEST SWAP3 SWAP2 POP POP JUMP JUMPDEST PUSH1 0x0 DUP1 PUSH1 0x0 DUP1 PUSH1 0x0 DUP1 PUSH1 0xC0 DUP8 DUP10 SUB SLT ISZERO PUSH3 0x107C JUMPI PUSH3 0x107B PUSH3 0xD3F JUMP JUMPDEST JUMPDEST PUSH1 0x0 DUP8 ADD CALLDATALOAD PUSH8 0xFFFFFFFFFFFFFFFF DUP2 GT ISZERO PUSH3 0x109D JUMPI PUSH3 0x109C PUSH3 0xD44 JUMP JUMPDEST JUMPDEST PUSH3 0x10AB DUP10 DUP3 DUP11 ADD PUSH3 0xFBA JUMP JUMPDEST SWAP7 POP POP PUSH1 0x20 DUP8 ADD CALLDATALOAD PUSH8 0xFFFFFFFFFFFFFFFF DUP2 GT ISZERO PUSH3 0x10CF JUMPI PUSH3 0x10CE PUSH3 0xD44 JUMP JUMPDEST JUMPDEST PUSH3 0x10DD DUP10 DUP3 DUP11 ADD PUSH3 0xFBA JUMP JUMPDEST SWAP6 POP POP PUSH1 0x40 PUSH3 0x10F0 DUP10 DUP3 DUP11 ADD PUSH3 0xD63 JUMP JUMPDEST SWAP5 POP POP PUSH1 0x60 PUSH3 0x1103 DUP10 DUP3 DUP11 ADD PUSH3 0x1014 JUMP JUMPDEST SWAP4 POP POP PUSH1 0x80 DUP8 ADD CALLDATALOAD PUSH8 0xFFFFFFFFFFFFFFFF DUP2 GT ISZERO PUSH3 0x1127 JUMPI PUSH3 0x1126 PUSH3 0xD44 JUMP JUMPDEST JUMPDEST PUSH3 0x1135 DUP10 DUP3 DUP11 ADD PUSH3 0xFBA JUMP JUMPDEST SWAP3 POP POP PUSH1 0xA0 PUSH3 0x1148 DUP10 DUP3 DUP11 ADD PUSH3 0x1045 JUMP JUMPDEST SWAP2 POP POP SWAP3 SWAP6 POP SWAP3 SWAP6 POP SWAP3 SWAP6 JUMP JUMPDEST PUSH3 0x1160 DUP2 PUSH3 0xC23 JUMP JUMPDEST DUP3 MSTORE POP POP JUMP JUMPDEST PUSH1 0x0 PUSH1 0x20 DUP3 ADD SWAP1 POP PUSH3 0x117D PUSH1 0x0 DUP4 ADD DUP5 PUSH3 0x1155 JUMP JUMPDEST SWAP3 SWAP2 POP POP JUMP JUMPDEST PUSH32 0x4E487B7100000000000000000000000000000000000000000000000000000000 PUSH1 0x0 MSTORE PUSH1 0x32 PUSH1 0x4 MSTORE PUSH1 0x24 PUSH1 0x0 REVERT JUMPDEST PUSH32 0x4E487B7100000000000000000000000000000000000000000000000000000000 PUSH1 0x0 MSTORE PUSH1 0x11 PUSH1 0x4 MSTORE PUSH1 0x24 PUSH1 0x0 REVERT JUMPDEST PUSH1 0x0 PUSH3 0x11EE DUP3 PUSH3 0xCFD JUMP JUMPDEST SWAP2 POP PUSH32 0xFFFFFFFFFFFFFFFFFFFFFFFFFFFFFFFFFFFFFFFFFFFFFFFFFFFFFFFFFFFFFFFF DUP3 SUB PUSH3 0x1223 JUMPI PUSH3 0x1222 PUSH3 0x11B2 JUMP JUMPDEST JUMPDEST PUSH1 0x1 DUP3 ADD SWAP1 POP SWAP2 SWAP1 POP JUMP JUMPDEST PUSH1 0x0 DUP3 DUP3 MSTORE PUSH1 0x20 DUP3 ADD SWAP1 POP SWAP3 SWAP2 POP POP JUMP JUMPDEST PUSH32 0x4D757374207061792031303030204F4E4520746F20637265617465206120746F PUSH1 0x0 DUP3 ADD MSTORE PUSH32 0x6B656E0000000000000000000000000000000000000000000000000000000000 PUSH1 0x20 DUP3 ADD MSTORE POP JUMP JUMPDEST PUSH1 0x0 PUSH3 0x129D PUSH1 0x23 DUP4 PUSH3 0x122E JUMP JUMPDEST SWAP2 POP PUSH3 0x12AA DUP3 PUSH3 0x123F JUMP JUMPDEST PUSH1 0x40 DUP3 ADD SWAP1 POP SWAP2 SWAP1 POP JUMP JUMPDEST PUSH1 0x0 PUSH1 0x20 DUP3 ADD SWAP1 POP DUP2 DUP2 SUB PUSH1 0x0 DUP4 ADD MSTORE PUSH3 0x12D0 DUP2 PUSH3 0x128E JUMP JUMPDEST SWAP1 POP SWAP2 SWAP1 POP JUMP JUMPDEST PUSH1 0x0 PUSH3 0x12E4 DUP3 PUSH3 0xCFD JUMP JUMPDEST SWAP2 POP PUSH3 0x12F1 DUP4 PUSH3 0xCFD JUMP JUMPDEST SWAP3 POP DUP3 DUP3 MUL PUSH3 0x1301 DUP2 PUSH3 0xCFD JUMP JUMPDEST SWAP2 POP DUP3 DUP3 DIV DUP5 EQ DUP4 ISZERO OR PUSH3 0x131B JUMPI PUSH3 0x131A PUSH3 0x11B2 JUMP JUMPDEST JUMPDEST POP SWAP3 SWAP2 POP POP JUMP JUMPDEST PUSH32 0x4E487B7100000000000000000000000000000000000000000000000000000000 PUSH1 0x0 MSTORE PUSH1 0x12 PUSH1 0x4 MSTORE PUSH1 0x24 PUSH1 0x0 REVERT JUMPDEST PUSH1 0x0 PUSH3 0x135E DUP3 PUSH3 0xCFD JUMP JUMPDEST SWAP2 POP PUSH3 0x136B DUP4 PUSH3 0xCFD JUMP JUMPDEST SWAP3 POP DUP3 PUSH3 0x137E JUMPI PUSH3 0x137D PUSH3 0x1322 JUMP JUMPDEST JUMPDEST DUP3 DUP3 DIV SWAP1 POP SWAP3 SWAP2 POP POP JUMP JUMPDEST PUSH32 0x546F6B656E206E616D65206C656E677468206D75737420626520626574776565 PUSH1 0x0 DUP3 ADD MSTORE PUSH32 0x6E203520616E6420323020636861726163746572730000000000000000000000 PUSH1 0x20 DUP3 ADD MSTORE POP JUMP JUMPDEST PUSH1 0x0 PUSH3 0x13E7 PUSH1 0x35 DUP4 PUSH3 0x122E JUMP JUMPDEST SWAP2 POP PUSH3 0x13F4 DUP3 PUSH3 0x1389 JUMP JUMPDEST PUSH1 0x40 DUP3 ADD SWAP1 POP SWAP2 SWAP1 POP JUMP JUMPDEST PUSH1 0x0 PUSH1 0x20 DUP3 ADD SWAP1 POP DUP2 DUP2 SUB PUSH1 0x0 DUP4 ADD MSTORE PUSH3 0x141A DUP2 PUSH3 0x13D8 JUMP JUMPDEST SWAP1 POP SWAP2 SWAP1 POP JUMP JUMPDEST PUSH32 0x546F6B656E2073796D626F6C206C656E677468206D7573742062652062657477 PUSH1 0x0 DUP3 ADD MSTORE PUSH32 0x65656E203320616E642035206368617261637465727300000000000000000000 PUSH1 0x20 DUP3 ADD MSTORE POP JUMP JUMPDEST PUSH1 0x0 PUSH3 0x147F PUSH1 0x36 DUP4 PUSH3 0x122E JUMP JUMPDEST SWAP2 POP PUSH3 0x148C DUP3 PUSH3 0x1421 JUMP JUMPDEST PUSH1 0x40 DUP3 ADD SWAP1 POP SWAP2 SWAP1 POP JUMP JUMPDEST PUSH1 0x0 PUSH1 0x20 DUP3 ADD SWAP1 POP DUP2 DUP2 SUB PUSH1 0x0 DUP4 ADD MSTORE PUSH3 0x14B2 DUP2 PUSH3 0x1470 JUMP JUMPDEST SWAP1 POP SWAP2 SWAP1 POP JUMP JUMPDEST PUSH32 0x546F6B656E20646563696D616C73206D757374206265206265747765656E2032 PUSH1 0x0 DUP3 ADD MSTORE PUSH32 0x20616E6420313800000000000000000000000000000000000000000000000000 PUSH1 0x20 DUP3 ADD MSTORE POP JUMP JUMPDEST PUSH1 0x0 PUSH3 0x1517 PUSH1 0x27 DUP4 PUSH3 0x122E JUMP JUMPDEST SWAP2 POP PUSH3 0x1524 DUP3 PUSH3 0x14B9 JUMP JUMPDEST PUSH1 0x40 DUP3 ADD SWAP1 POP SWAP2 SWAP1 POP JUMP JUMPDEST PUSH1 0x0 PUSH1 0x20 DUP3 ADD SWAP1 POP DUP2 DUP2 SUB PUSH1 0x0 DUP4 ADD MSTORE PUSH3 0x154A DUP2 PUSH3 0x1508 JUMP JUMPDEST SWAP1 POP SWAP2 SWAP1 POP JUMP JUMPDEST PUSH32 0x57656273697465206C656E677468206D75737420626520353020636861726163 PUSH1 0x0 DUP3 ADD MSTORE PUSH32 0x74657273206F72206C6573730000000000000000000000000000000000000000 PUSH1 0x20 DUP3 ADD MSTORE POP JUMP JUMPDEST PUSH1 0x0 PUSH3 0x15AF PUSH1 0x2C DUP4 PUSH3 0x122E JUMP JUMPDEST SWAP2 POP PUSH3 0x15BC DUP3 PUSH3 0x1551 JUMP JUMPDEST PUSH1 0x40 DUP3 ADD SWAP1 POP SWAP2 SWAP1 POP JUMP JUMPDEST PUSH1 0x0 PUSH1 0x20 DUP3 ADD SWAP1 POP DUP2 DUP2 SUB PUSH1 0x0 DUP4 ADD MSTORE PUSH3 0x15E2 DUP2 PUSH3 0x15A0 JUMP JUMPDEST SWAP1 POP SWAP2 SWAP1 POP JUMP JUMPDEST PUSH32 0x546F74616C20737570706C79206D757374206265206265747765656E20313030 PUSH1 0x0 DUP3 ADD MSTORE PUSH32 0x2C30303020616E64203130302062696C6C696F6E000000000000000000000000 PUSH1 0x20 DUP3 ADD MSTORE POP JUMP JUMPDEST PUSH1 0x0 PUSH3 0x1647 PUSH1 0x34 DUP4 PUSH3 0x122E JUMP JUMPDEST SWAP2 POP PUSH3 0x1654 DUP3 PUSH3 0x15E9 JUMP JUMPDEST PUSH1 0x40 DUP3 ADD SWAP1 POP SWAP2 SWAP1 POP JUMP JUMPDEST PUSH1 0x0 PUSH1 0x20 DUP3 ADD SWAP1 POP DUP2 DUP2 SUB PUSH1 0x0 DUP4 ADD MSTORE PUSH3 0x167A DUP2 PUSH3 0x1638 JUMP JUMPDEST SWAP1 POP SWAP2 SWAP1 POP JUMP JUMPDEST PUSH1 0x0 DUP2 PUSH1 0x1 SHR SWAP1 POP SWAP2 SWAP1 POP JUMP JUMPDEST PUSH1 0x0 DUP1 DUP3 SWAP2 POP DUP4 SWAP1 POP JUMPDEST PUSH1 0x1 DUP6 GT ISZERO PUSH3 0x16E0 JUMPI DUP1 DUP7 DIV DUP2 GT ISZERO PUSH3 0x16B8 JUMPI PUSH3 0x16B7 PUSH3 0x11B2 JUMP JUMPDEST JUMPDEST PUSH1 0x1 DUP6 AND ISZERO PUSH3 0x16C8 JUMPI DUP1 DUP3 MUL SWAP2 POP JUMPDEST DUP1 DUP2 MUL SWAP1 POP PUSH3 0x16D8 DUP6 PUSH3 0x1681 JUMP JUMPDEST SWAP5 POP PUSH3 0x1698 JUMP JUMPDEST SWAP5 POP SWAP5 SWAP3 POP POP POP JUMP JUMPDEST PUSH1 0x0 DUP3 PUSH3 0x16FB JUMPI PUSH1 0x1 SWAP1 POP PUSH3 0x17CE JUMP JUMPDEST DUP2 PUSH3 0x170B JUMPI PUSH1 0x0 SWAP1 POP PUSH3 0x17CE JUMP JUMPDEST DUP2 PUSH1 0x1 DUP2 EQ PUSH3 0x1724 JUMPI PUSH1 0x2 DUP2 EQ PUSH3 0x172F JUMPI PUSH3 0x1765 JUMP JUMPDEST PUSH1 0x1 SWAP2 POP POP PUSH3 0x17CE JUMP JUMPDEST PUSH1 0xFF DUP5 GT ISZERO PUSH3 0x1744 JUMPI PUSH3 0x1743 PUSH3 0x11B2 JUMP JUMPDEST JUMPDEST DUP4 PUSH1 0x2 EXP SWAP2 POP DUP5 DUP3 GT ISZERO PUSH3 0x175E JUMPI PUSH3 0x175D PUSH3 0x11B2 JUMP JUMPDEST JUMPDEST POP PUSH3 0x17CE JUMP JUMPDEST POP PUSH1 0x20 DUP4 LT PUSH2 0x133 DUP4 LT AND PUSH1 0x4E DUP5 LT PUSH1 0xB DUP5 LT AND OR ISZERO PUSH3 0x179F JUMPI DUP3 DUP3 EXP SWAP1 POP DUP4 DUP2 GT ISZERO PUSH3 0x1799 JUMPI PUSH3 0x1798 PUSH3 0x11B2 JUMP JUMPDEST JUMPDEST PUSH3 0x17CE JUMP JUMPDEST PUSH3 0x17AE DUP5 DUP5 DUP5 PUSH1 0x1 PUSH3 0x168E JUMP JUMPDEST SWAP3 POP SWAP1 POP DUP2 DUP5 DIV DUP2 GT ISZERO PUSH3 0x17C8 JUMPI PUSH3 0x17C7 PUSH3 0x11B2 JUMP JUMPDEST JUMPDEST DUP2 DUP2 MUL SWAP1 POP JUMPDEST SWAP4 SWAP3 POP POP POP JUMP JUMPDEST PUSH1 0x0 PUSH3 0x17E2 DUP3 PUSH3 0xCFD JUMP JUMPDEST SWAP2 POP PUSH3 0x17EF DUP4 PUSH3 0xCFD JUMP JUMPDEST SWAP3 POP PUSH3 0x181E PUSH32 0xFFFFFFFFFFFFFFFFFFFFFFFFFFFFFFFFFFFFFFFFFFFFFFFFFFFFFFFFFFFFFFFF DUP5 DUP5 PUSH3 0x16E9 JUMP JUMPDEST SWAP1 POP SWAP3 SWAP2 POP POP JUMP JUMPDEST PUSH32 0x4F766572666C6F7720646574656374656420696E20746F74616C20737570706C PUSH1 0x0 DUP3 ADD MSTORE PUSH32 0x792063616C63756C6174696F6E00000000000000000000000000000000000000 PUSH1 0x20 DUP3 ADD MSTORE POP JUMP JUMPDEST PUSH1 0x0 PUSH3 0x1884 PUSH1 0x2D DUP4 PUSH3 0x122E JUMP JUMPDEST SWAP2 POP PUSH3 0x1891 DUP3 PUSH3 0x1826 JUMP JUMPDEST PUSH1 0x40 DUP3 ADD SWAP1 POP SWAP2 SWAP1 POP JUMP JUMPDEST PUSH1 0x0 PUSH1 0x20 DUP3 ADD SWAP1 POP DUP2 DUP2 SUB PUSH1 0x0 DUP4 ADD MSTORE PUSH3 0x18B7 DUP2 PUSH3 0x1875 JUMP JUMPDEST SWAP1 POP SWAP2 SWAP1 POP JUMP JUMPDEST PUSH1 0x0 DUP2 MLOAD SWAP1 POP SWAP2 SWAP1 POP JUMP JUMPDEST PUSH1 0x0 JUMPDEST DUP4 DUP2 LT ISZERO PUSH3 0x18E9 JUMPI DUP1 DUP3 ADD MLOAD DUP2 DUP5 ADD MSTORE PUSH1 0x20 DUP2 ADD SWAP1 POP PUSH3 0x18CC JUMP JUMPDEST PUSH1 0x0 DUP5 DUP5 ADD MSTORE POP POP POP POP JUMP JUMPDEST PUSH1 0x0 PUSH3 0x1902 DUP3 PUSH3 0x18BE JUMP JUMPDEST PUSH3 0x190E DUP2 DUP6 PUSH3 0x122E JUMP JUMPDEST SWAP4 POP PUSH3 0x1920 DUP2 DUP6 PUSH1 0x20 DUP7 ADD PUSH3 0x18C9 JUMP JUMPDEST PUSH3 0x192B DUP2 PUSH3 0xE95 JUMP JUMPDEST DUP5 ADD SWAP2 POP POP SWAP3 SWAP2 POP POP JUMP JUMPDEST PUSH3 0x1941 DUP2 PUSH3 0xFED JUMP JUMPDEST DUP3 MSTORE POP POP JUMP JUMPDEST PUSH1 0x0 PUSH1 0xC0 DUP3 ADD SWAP1 POP DUP2 DUP2 SUB PUSH1 0x0 DUP4 ADD MSTORE PUSH3 0x1963 DUP2 DUP10 PUSH3 0x18F5 JUMP JUMPDEST SWAP1 POP DUP2 DUP2 SUB PUSH1 0x20 DUP4 ADD MSTORE PUSH3 0x1979 DUP2 DUP9 PUSH3 0x18F5 JUMP JUMPDEST SWAP1 POP PUSH3 0x198A PUSH1 0x40 DUP4 ADD DUP8 PUSH3 0xD07 JUMP JUMPDEST PUSH3 0x1999 PUSH1 0x60 DUP4 ADD DUP7 PUSH3 0x1936 JUMP JUMPDEST DUP2 DUP2 SUB PUSH1 0x80 DUP4 ADD MSTORE PUSH3 0x19AD DUP2 DUP6 PUSH3 0x18F5 JUMP JUMPDEST SWAP1 POP PUSH3 0x19BE PUSH1 0xA0 DUP4 ADD DUP5 PUSH3 0x1155 JUMP JUMPDEST SWAP8 SWAP7 POP POP POP POP POP POP POP JUMP JUMPDEST PUSH1 0x0 PUSH1 0xC0 DUP3 ADD SWAP1 POP DUP2 DUP2 SUB PUSH1 0x0 DUP4 ADD MSTORE PUSH3 0x19E5 DUP2 DUP10 PUSH3 0x18F5 JUMP JUMPDEST SWAP1 POP DUP2 DUP2 SUB PUSH1 0x20 DUP4 ADD MSTORE PUSH3 0x19FB DUP2 DUP9 PUSH3 0x18F5 JUMP JUMPDEST SWAP1 POP PUSH3 0x1A0C PUSH1 0x40 DUP4 ADD DUP8 PUSH3 0xD07 JUMP JUMPDEST PUSH3 0x1A1B PUSH1 0x60 DUP4 ADD DUP7 PUSH3 0x1936 JUMP JUMPDEST DUP2 DUP2 SUB PUSH1 0x80 DUP4 ADD MSTORE PUSH3 0x1A2F DUP2 DUP6 PUSH3 0x18F5 JUMP JUMPDEST SWAP1 POP PUSH3 0x1A40 PUSH1 0xA0 DUP4 ADD DUP5 PUSH3 0xE5D JUMP JUMPDEST SWAP8 SWAP7 POP POP POP POP POP POP POP JUMP INVALID PUSH1 0x80 PUSH1 0x40 MSTORE CALLVALUE DUP1 ISZERO PUSH3 0x11 JUMPI PUSH1 0x0 DUP1 REVERT JUMPDEST POP PUSH1 0x40 MLOAD PUSH3 0x2204 CODESIZE SUB DUP1 PUSH3 0x2204 DUP4 CODECOPY DUP2 DUP2 ADD PUSH1 0x40 MSTORE DUP2 ADD SWAP1 PUSH3 0x37 SWAP2 SWAP1 PUSH3 0x3D7 JUMP JUMPDEST DUP6 PUSH1 0x0 SWAP1 DUP2 PUSH3 0x48 SWAP2 SWAP1 PUSH3 0x711 JUMP JUMPDEST POP DUP5 PUSH1 0x1 SWAP1 DUP2 PUSH3 0x5A SWAP2 SWAP1 PUSH3 0x711 JUMP JUMPDEST POP DUP3 PUSH1 0x2 PUSH1 0x0 PUSH2 0x100 EXP DUP2 SLOAD DUP2 PUSH1 0xFF MUL NOT AND SWAP1 DUP4 PUSH1 0xFF AND MUL OR SWAP1 SSTORE POP DUP2 PUSH1 0x4 SWAP1 DUP2 PUSH3 0x87 SWAP2 SWAP1 PUSH3 0x711 JUMP JUMPDEST POP DUP3 PUSH1 0xA PUSH3 0x97 SWAP2 SWAP1 PUSH3 0x97B JUMP JUMPDEST DUP5 PUSH3 0xA4 SWAP2 SWAP1 PUSH3 0x9CC JUMP JUMPDEST PUSH1 0x3 DUP2 SWAP1 SSTORE POP PUSH1 0x3 SLOAD PUSH1 0x5 PUSH1 0x0 DUP4 PUSH20 0xFFFFFFFFFFFFFFFFFFFFFFFFFFFFFFFFFFFFFFFF AND PUSH20 0xFFFFFFFFFFFFFFFFFFFFFFFFFFFFFFFFFFFFFFFF AND DUP2 MSTORE PUSH1 0x20 ADD SWAP1 DUP2 MSTORE PUSH1 0x20 ADD PUSH1 0x0 KECCAK256 DUP2 SWAP1 SSTORE POP DUP1 PUSH20 0xFFFFFFFFFFFFFFFFFFFFFFFFFFFFFFFFFFFFFFFF AND PUSH1 0x0 PUSH20 0xFFFFFFFFFFFFFFFFFFFFFFFFFFFFFFFFFFFFFFFF AND PUSH32 0xDDF252AD1BE2C89B69C2B068FC378DAA952BA7F163C4A11628F55A4DF523B3EF PUSH1 0x3 SLOAD PUSH1 0x40 MLOAD PUSH3 0x152 SWAP2 SWAP1 PUSH3 0xA28 JUMP JUMPDEST PUSH1 0x40 MLOAD DUP1 SWAP2 SUB SWAP1 LOG3 POP POP POP POP POP POP PUSH3 0xA45 JUMP JUMPDEST PUSH1 0x0 PUSH1 0x40 MLOAD SWAP1 POP SWAP1 JUMP JUMPDEST PUSH1 0x0 DUP1 REVERT JUMPDEST PUSH1 0x0 DUP1 REVERT JUMPDEST PUSH1 0x0 DUP1 REVERT JUMPDEST PUSH1 0x0 DUP1 REVERT JUMPDEST PUSH1 0x0 PUSH1 0x1F NOT PUSH1 0x1F DUP4 ADD AND SWAP1 POP SWAP2 SWAP1 POP JUMP JUMPDEST PUSH32 0x4E487B7100000000000000000000000000000000000000000000000000000000 PUSH1 0x0 MSTORE PUSH1 0x41 PUSH1 0x4 MSTORE PUSH1 0x24 PUSH1 0x0 REVERT JUMPDEST PUSH3 0x1CF DUP3 PUSH3 0x184 JUMP JUMPDEST DUP2 ADD DUP2 DUP2 LT PUSH8 0xFFFFFFFFFFFFFFFF DUP3 GT OR ISZERO PUSH3 0x1F1 JUMPI PUSH3 0x1F0 PUSH3 0x195 JUMP JUMPDEST JUMPDEST DUP1 PUSH1 0x40 MSTORE POP POP POP JUMP JUMPDEST PUSH1 0x0 PUSH3 0x206 PUSH3 0x166 JUMP JUMPDEST SWAP1 POP PUSH3 0x214 DUP3 DUP3 PUSH3 0x1C4 JUMP JUMPDEST SWAP2 SWAP1 POP JUMP JUMPDEST PUSH1 0x0 PUSH8 0xFFFFFFFFFFFFFFFF DUP3 GT ISZERO PUSH3 0x237 JUMPI PUSH3 0x236 PUSH3 0x195 JUMP JUMPDEST JUMPDEST PUSH3 0x242 DUP3 PUSH3 0x184 JUMP JUMPDEST SWAP1 POP PUSH1 0x20 DUP2 ADD SWAP1 POP SWAP2 SWAP1 POP JUMP JUMPDEST PUSH1 0x0 JUMPDEST DUP4 DUP2 LT ISZERO PUSH3 0x26F JUMPI DUP1 DUP3 ADD MLOAD DUP2 DUP5 ADD MSTORE PUSH1 0x20 DUP2 ADD SWAP1 POP PUSH3 0x252 JUMP JUMPDEST PUSH1 0x0 DUP5 DUP5 ADD MSTORE POP POP POP POP JUMP JUMPDEST PUSH1 0x0 PUSH3 0x292 PUSH3 0x28C DUP5 PUSH3 0x219 JUMP JUMPDEST PUSH3 0x1FA JUMP JUMPDEST SWAP1 POP DUP3 DUP2 MSTORE PUSH1 0x20 DUP2 ADD DUP5 DUP5 DUP5 ADD GT ISZERO PUSH3 0x2B1 JUMPI PUSH3 0x2B0 PUSH3 0x17F JUMP JUMPDEST JUMPDEST PUSH3 0x2BE DUP5 DUP3 DUP6 PUSH3 0x24F JUMP JUMPDEST POP SWAP4 SWAP3 POP POP POP JUMP JUMPDEST PUSH1 0x0 DUP3 PUSH1 0x1F DUP4 ADD SLT PUSH3 0x2DE JUMPI PUSH3 0x2DD PUSH3 0x17A JUMP JUMPDEST JUMPDEST DUP2 MLOAD PUSH3 0x2F0 DUP5 DUP3 PUSH1 0x20 DUP7 ADD PUSH3 0x27B JUMP JUMPDEST SWAP2 POP POP SWAP3 SWAP2 POP POP JUMP JUMPDEST PUSH1 0x0 DUP2 SWAP1 POP SWAP2 SWAP1 POP JUMP JUMPDEST PUSH3 0x30E DUP2 PUSH3 0x2F9 JUMP JUMPDEST DUP2 EQ PUSH3 0x31A JUMPI PUSH1 0x0 DUP1 REVERT JUMPDEST POP JUMP JUMPDEST PUSH1 0x0 DUP2 MLOAD SWAP1 POP PUSH3 0x32E DUP2 PUSH3 0x303 JUMP JUMPDEST SWAP3 SWAP2 POP POP JUMP JUMPDEST PUSH1 0x0 PUSH1 0xFF DUP3 AND SWAP1 POP SWAP2 SWAP1 POP JUMP JUMPDEST PUSH3 0x34C DUP2 PUSH3 0x334 JUMP JUMPDEST DUP2 EQ PUSH3 0x358 JUMPI PUSH1 0x0 DUP1 REVERT JUMPDEST POP JUMP JUMPDEST PUSH1 0x0 DUP2 MLOAD SWAP1 POP PUSH3 0x36C DUP2 PUSH3 0x341 JUMP JUMPDEST SWAP3 SWAP2 POP POP JUMP JUMPDEST PUSH1 0x0 PUSH20 0xFFFFFFFFFFFFFFFFFFFFFFFFFFFFFFFFFFFFFFFF DUP3 AND SWAP1 POP SWAP2 SWAP1 POP JUMP JUMPDEST PUSH1 0x0 PUSH3 0x39F DUP3 PUSH3 0x372 JUMP JUMPDEST SWAP1 POP SWAP2 SWAP1 POP JUMP JUMPDEST PUSH3 0x3B1 DUP2 PUSH3 0x392 JUMP JUMPDEST DUP2 EQ PUSH3 0x3BD JUMPI PUSH1 0x0 DUP1 REVERT JUMPDEST POP JUMP JUMPDEST PUSH1 0x0 DUP2 MLOAD SWAP1 POP PUSH3 0x3D1 DUP2 PUSH3 0x3A6 JUMP JUMPDEST SWAP3 SWAP2 POP POP JUMP JUMPDEST PUSH1 0x0 DUP1 PUSH1 0x0 DUP1 PUSH1 0x0 DUP1 PUSH1 0xC0 DUP8 DUP10 SUB SLT ISZERO PUSH3 0x3F7 JUMPI PUSH3 0x3F6 PUSH3 0x170 JUMP JUMPDEST JUMPDEST PUSH1 0x0 DUP8 ADD MLOAD PUSH8 0xFFFFFFFFFFFFFFFF DUP2 GT ISZERO PUSH3 0x418 JUMPI PUSH3 0x417 PUSH3 0x175 JUMP JUMPDEST JUMPDEST PUSH3 0x426 DUP10 DUP3 DUP11 ADD PUSH3 0x2C6 JUMP JUMPDEST SWAP7 POP POP PUSH1 0x20 DUP8 ADD MLOAD PUSH8 0xFFFFFFFFFFFFFFFF DUP2 GT ISZERO PUSH3 0x44A JUMPI PUSH3 0x449 PUSH3 0x175 JUMP JUMPDEST JUMPDEST PUSH3 0x458 DUP10 DUP3 DUP11 ADD PUSH3 0x2C6 JUMP JUMPDEST SWAP6 POP POP PUSH1 0x40 PUSH3 0x46B DUP10 DUP3 DUP11 ADD PUSH3 0x31D JUMP JUMPDEST SWAP5 POP POP PUSH1 0x60 PUSH3 0x47E DUP10 DUP3 DUP11 ADD PUSH3 0x35B JUMP JUMPDEST SWAP4 POP POP PUSH1 0x80 DUP8 ADD MLOAD PUSH8 0xFFFFFFFFFFFFFFFF DUP2 GT ISZERO PUSH3 0x4A2 JUMPI PUSH3 0x4A1 PUSH3 0x175 JUMP JUMPDEST JUMPDEST PUSH3 0x4B0 DUP10 DUP3 DUP11 ADD PUSH3 0x2C6 JUMP JUMPDEST SWAP3 POP POP PUSH1 0xA0 PUSH3 0x4C3 DUP10 DUP3 DUP11 ADD PUSH3 0x3C0 JUMP JUMPDEST SWAP2 POP POP SWAP3 SWAP6 POP SWAP3 SWAP6 POP SWAP3 SWAP6 JUMP JUMPDEST PUSH1 0x0 DUP2 MLOAD SWAP1 POP SWAP2 SWAP1 POP JUMP JUMPDEST PUSH32 0x4E487B7100000000000000000000000000000000000000000000000000000000 PUSH1 0x0 MSTORE PUSH1 0x22 PUSH1 0x4 MSTORE PUSH1 0x24 PUSH1 0x0 REVERT JUMPDEST PUSH1 0x0 PUSH1 0x2 DUP3 DIV SWAP1 POP PUSH1 0x1 DUP3 AND DUP1 PUSH3 0x523 JUMPI PUSH1 0x7F DUP3 AND SWAP2 POP JUMPDEST PUSH1 0x20 DUP3 LT DUP2 SUB PUSH3 0x539 JUMPI PUSH3 0x538 PUSH3 0x4DB JUMP JUMPDEST JUMPDEST POP SWAP2 SWAP1 POP JUMP JUMPDEST PUSH1 0x0 DUP2 SWAP1 POP DUP2 PUSH1 0x0 MSTORE PUSH1 0x20 PUSH1 0x0 KECCAK256 SWAP1 POP SWAP2 SWAP1 POP JUMP JUMPDEST PUSH1 0x0 PUSH1 0x20 PUSH1 0x1F DUP4 ADD DIV SWAP1 POP SWAP2 SWAP1 POP JUMP JUMPDEST PUSH1 0x0 DUP3 DUP3 SHL SWAP1 POP SWAP3 SWAP2 POP POP JUMP JUMPDEST PUSH1 0x0 PUSH1 0x8 DUP4 MUL PUSH3 0x5A3 PUSH32 0xFFFFFFFFFFFFFFFFFFFFFFFFFFFFFFFFFFFFFFFFFFFFFFFFFFFFFFFFFFFFFFFF DUP3 PUSH3 0x564 JUMP JUMPDEST PUSH3 0x5AF DUP7 DUP4 PUSH3 0x564 JUMP JUMPDEST SWAP6 POP DUP1 NOT DUP5 AND SWAP4 POP DUP1 DUP7 AND DUP5 OR SWAP3 POP POP POP SWAP4 SWAP3 POP POP POP JUMP JUMPDEST PUSH1 0x0 DUP2 SWAP1 POP SWAP2 SWAP1 POP JUMP JUMPDEST PUSH1 0x0 PUSH3 0x5F2 PUSH3 0x5EC PUSH3 0x5E6 DUP5 PUSH3 0x2F9 JUMP JUMPDEST PUSH3 0x5C7 JUMP JUMPDEST PUSH3 0x2F9 JUMP JUMPDEST SWAP1 POP SWAP2 SWAP1 POP JUMP JUMPDEST PUSH1 0x0 DUP2 SWAP1 POP SWAP2 SWAP1 POP JUMP JUMPDEST PUSH3 0x60E DUP4 PUSH3 0x5D1 JUMP JUMPDEST PUSH3 0x626 PUSH3 0x61D DUP3 PUSH3 0x5F9 JUMP JUMPDEST DUP5 DUP5 SLOAD PUSH3 0x571 JUMP JUMPDEST DUP3 SSTORE POP POP POP POP JUMP JUMPDEST PUSH1 0x0 SWAP1 JUMP JUMPDEST PUSH3 0x63D PUSH3 0x62E JUMP JUMPDEST PUSH3 0x64A DUP2 DUP5 DUP5 PUSH3 0x603 JUMP JUMPDEST POP POP POP JUMP JUMPDEST JUMPDEST DUP2 DUP2 LT ISZERO PUSH3 0x672 JUMPI PUSH3 0x666 PUSH1 0x0 DUP3 PUSH3 0x633 JUMP JUMPDEST PUSH1 0x1 DUP2 ADD SWAP1 POP PUSH3 0x650 JUMP JUMPDEST POP POP JUMP JUMPDEST PUSH1 0x1F DUP3 GT ISZERO PUSH3 0x6C1 JUMPI PUSH3 0x68B DUP2 PUSH3 0x53F JUMP JUMPDEST PUSH3 0x696 DUP5 PUSH3 0x554 JUMP JUMPDEST DUP2 ADD PUSH1 0x20 DUP6 LT ISZERO PUSH3 0x6A6 JUMPI DUP2 SWAP1 POP JUMPDEST PUSH3 0x6BE PUSH3 0x6B5 DUP6 PUSH3 0x554 JUMP JUMPDEST DUP4 ADD DUP3 PUSH3 0x64F JUMP JUMPDEST POP POP JUMPDEST POP POP POP JUMP JUMPDEST PUSH1 0x0 DUP3 DUP3 SHR SWAP1 POP SWAP3 SWAP2 POP POP JUMP JUMPDEST PUSH1 0x0 PUSH3 0x6E6 PUSH1 0x0 NOT DUP5 PUSH1 0x8 MUL PUSH3 0x6C6 JUMP JUMPDEST NOT DUP1 DUP4 AND SWAP2 POP POP SWAP3 SWAP2 POP POP JUMP JUMPDEST PUSH1 0x0 PUSH3 0x701 DUP4 DUP4 PUSH3 0x6D3 JUMP JUMPDEST SWAP2 POP DUP3 PUSH1 0x2 MUL DUP3 OR SWAP1 POP SWAP3 SWAP2 POP POP JUMP JUMPDEST PUSH3 0x71C DUP3 PUSH3 0x4D0 JUMP JUMPDEST PUSH8 0xFFFFFFFFFFFFFFFF DUP2 GT ISZERO PUSH3 0x738 JUMPI PUSH3 0x737 PUSH3 0x195 JUMP JUMPDEST JUMPDEST PUSH3 0x744 DUP3 SLOAD PUSH3 0x50A JUMP JUMPDEST PUSH3 0x751 DUP3 DUP3 DUP6 PUSH3 0x676 JUMP JUMPDEST PUSH1 0x0 PUSH1 0x20 SWAP1 POP PUSH1 0x1F DUP4 GT PUSH1 0x1 DUP2 EQ PUSH3 0x789 JUMPI PUSH1 0x0 DUP5 ISZERO PUSH3 0x774 JUMPI DUP3 DUP8 ADD MLOAD SWAP1 POP JUMPDEST PUSH3 0x780 DUP6 DUP3 PUSH3 0x6F3 JUMP JUMPDEST DUP7 SSTORE POP PUSH3 0x7F0 JUMP JUMPDEST PUSH1 0x1F NOT DUP5 AND PUSH3 0x799 DUP7 PUSH3 0x53F JUMP JUMPDEST PUSH1 0x0 JUMPDEST DUP3 DUP2 LT ISZERO PUSH3 0x7C3 JUMPI DUP5 DUP10 ADD MLOAD DUP3 SSTORE PUSH1 0x1 DUP3 ADD SWAP2 POP PUSH1 0x20 DUP6 ADD SWAP5 POP PUSH1 0x20 DUP2 ADD SWAP1 POP PUSH3 0x79C JUMP JUMPDEST DUP7 DUP4 LT ISZERO PUSH3 0x7E3 JUMPI DUP5 DUP10 ADD MLOAD PUSH3 0x7DF PUSH1 0x1F DUP10 AND DUP3 PUSH3 0x6D3 JUMP JUMPDEST DUP4 SSTORE POP JUMPDEST PUSH1 0x1 PUSH1 0x2 DUP9 MUL ADD DUP9 SSTORE POP POP POP JUMPDEST POP POP POP POP POP POP JUMP JUMPDEST PUSH32 0x4E487B7100000000000000000000000000000000000000000000000000000000 PUSH1 0x0 MSTORE PUSH1 0x11 PUSH1 0x4 MSTORE PUSH1 0x24 PUSH1 0x0 REVERT JUMPDEST PUSH1 0x0 DUP2 PUSH1 0x1 SHR SWAP1 POP SWAP2 SWAP1 POP JUMP JUMPDEST PUSH1 0x0 DUP1 DUP3 SWAP2 POP DUP4 SWAP1 POP JUMPDEST PUSH1 0x1 DUP6 GT ISZERO PUSH3 0x886 JUMPI DUP1 DUP7 DIV DUP2 GT ISZERO PUSH3 0x85E JUMPI PUSH3 0x85D PUSH3 0x7F8 JUMP JUMPDEST JUMPDEST PUSH1 0x1 DUP6 AND ISZERO PUSH3 0x86E JUMPI DUP1 DUP3 MUL SWAP2 POP JUMPDEST DUP1 DUP2 MUL SWAP1 POP PUSH3 0x87E DUP6 PUSH3 0x827 JUMP JUMPDEST SWAP5 POP PUSH3 0x83E JUMP JUMPDEST SWAP5 POP SWAP5 SWAP3 POP POP POP JUMP JUMPDEST PUSH1 0x0 DUP3 PUSH3 0x8A1 JUMPI PUSH1 0x1 SWAP1 POP PUSH3 0x974 JUMP JUMPDEST DUP2 PUSH3 0x8B1 JUMPI PUSH1 0x0 SWAP1 POP PUSH3 0x974 JUMP JUMPDEST DUP2 PUSH1 0x1 DUP2 EQ PUSH3 0x8CA JUMPI PUSH1 0x2 DUP2 EQ PUSH3 0x8D5 JUMPI PUSH3 0x90B JUMP JUMPDEST PUSH1 0x1 SWAP2 POP POP PUSH3 0x974 JUMP JUMPDEST PUSH1 0xFF DUP5 GT ISZERO PUSH3 0x8EA JUMPI PUSH3 0x8E9 PUSH3 0x7F8 JUMP JUMPDEST JUMPDEST DUP4 PUSH1 0x2 EXP SWAP2 POP DUP5 DUP3 GT ISZERO PUSH3 0x904 JUMPI PUSH3 0x903 PUSH3 0x7F8 JUMP JUMPDEST JUMPDEST POP PUSH3 0x974 JUMP JUMPDEST POP PUSH1 0x20 DUP4 LT PUSH2 0x133 DUP4 LT AND PUSH1 0x4E DUP5 LT PUSH1 0xB DUP5 LT AND OR ISZERO PUSH3 0x945 JUMPI DUP3 DUP3 EXP SWAP1 POP DUP4 DUP2 GT ISZERO PUSH3 0x93F JUMPI PUSH3 0x93E PUSH3 0x7F8 JUMP JUMPDEST JUMPDEST PUSH3 0x974 JUMP JUMPDEST PUSH3 0x954 DUP5 DUP5 DUP5 PUSH1 0x1 PUSH3 0x834 JUMP JUMPDEST SWAP3 POP SWAP1 POP DUP2 DUP5 DIV DUP2 GT ISZERO PUSH3 0x96E JUMPI PUSH3 0x96D PUSH3 0x7F8 JUMP JUMPDEST JUMPDEST DUP2 DUP2 MUL SWAP1 POP JUMPDEST SWAP4 SWAP3 POP POP POP JUMP JUMPDEST PUSH1 0x0 PUSH3 0x988 DUP3 PUSH3 0x2F9 JUMP JUMPDEST SWAP2 POP PUSH3 0x995 DUP4 PUSH3 0x334 JUMP JUMPDEST SWAP3 POP PUSH3 0x9C4 PUSH32 0xFFFFFFFFFFFFFFFFFFFFFFFFFFFFFFFFFFFFFFFFFFFFFFFFFFFFFFFFFFFFFFFF DUP5 DUP5 PUSH3 0x88F JUMP JUMPDEST SWAP1 POP SWAP3 SWAP2 POP POP JUMP JUMPDEST PUSH1 0x0 PUSH3 0x9D9 DUP3 PUSH3 0x2F9 JUMP JUMPDEST SWAP2 POP PUSH3 0x9E6 DUP4 PUSH3 0x2F9 JUMP JUMPDEST SWAP3 POP DUP3 DUP3 MUL PUSH3 0x9F6 DUP2 PUSH3 0x2F9 JUMP JUMPDEST SWAP2 POP DUP3 DUP3 DIV DUP5 EQ DUP4 ISZERO OR PUSH3 0xA10 JUMPI PUSH3 0xA0F PUSH3 0x7F8 JUMP JUMPDEST JUMPDEST POP SWAP3 SWAP2 POP POP JUMP JUMPDEST PUSH3 0xA22 DUP2 PUSH3 0x2F9 JUMP JUMPDEST DUP3 MSTORE POP POP JUMP JUMPDEST PUSH1 0x0 PUSH1 0x20 DUP3 ADD SWAP1 POP PUSH3 0xA3F PUSH1 0x0 DUP4 ADD DUP5 PUSH3 0xA17 JUMP JUMPDEST SWAP3 SWAP2 POP POP JUMP JUMPDEST PUSH2 0x17AF DUP1 PUSH3 0xA55 PUSH1 0x0 CODECOPY PUSH1 0x0 RETURN INVALID PUSH1 0x80 PUSH1 0x40 MSTORE CALLVALUE DUP1 ISZERO PUSH2 0x10 JUMPI PUSH1 0x0 DUP1 REVERT JUMPDEST POP PUSH1 0x4 CALLDATASIZE LT PUSH2 0xCF JUMPI PUSH1 0x0 CALLDATALOAD PUSH1 0xE0 SHR DUP1 PUSH4 0x42966C68 GT PUSH2 0x8C JUMPI DUP1 PUSH4 0xA457C2D7 GT PUSH2 0x66 JUMPI DUP1 PUSH4 0xA457C2D7 EQ PUSH2 0x23C JUMPI DUP1 PUSH4 0xA9059CBB EQ PUSH2 0x26C JUMPI DUP1 PUSH4 0xBEB0A416 EQ PUSH2 0x29C JUMPI DUP1 PUSH4 0xDD62ED3E EQ PUSH2 0x2BA JUMPI PUSH2 0xCF JUMP JUMPDEST DUP1 PUSH4 0x42966C68 EQ PUSH2 0x1BE JUMPI DUP1 PUSH4 0x70A08231 EQ PUSH2 0x1EE JUMPI DUP1 PUSH4 0x95D89B41 EQ PUSH2 0x21E JUMPI PUSH2 0xCF JUMP JUMPDEST DUP1 PUSH4 0x6FDDE03 EQ PUSH2 0xD4 JUMPI DUP1 PUSH4 0x95EA7B3 EQ PUSH2 0xF2 JUMPI DUP1 PUSH4 0x18160DDD EQ PUSH2 0x122 JUMPI DUP1 PUSH4 0x23B872DD EQ PUSH2 0x140 JUMPI DUP1 PUSH4 0x313CE567 EQ PUSH2 0x170 JUMPI DUP1 PUSH4 0x39509351 EQ PUSH2 0x18E JUMPI JUMPDEST PUSH1 0x0 DUP1 REVERT JUMPDEST PUSH2 0xDC PUSH2 0x2EA JUMP JUMPDEST PUSH1 0x40 MLOAD PUSH2 0xE9 SWAP2 SWAP1 PUSH2 0x117B JUMP JUMPDEST PUSH1 0x40 MLOAD DUP1 SWAP2 SUB SWAP1 RETURN JUMPDEST PUSH2 0x10C PUSH1 0x4 DUP1 CALLDATASIZE SUB DUP2 ADD SWAP1 PUSH2 0x107 SWAP2 SWAP1 PUSH2 0x1236 JUMP JUMPDEST PUSH2 0x378 JUMP JUMPDEST PUSH1 0x40 MLOAD PUSH2 0x119 SWAP2 SWAP1 PUSH2 0x1291 JUMP JUMPDEST PUSH1 0x40 MLOAD DUP1 SWAP2 SUB SWAP1 RETURN JUMPDEST PUSH2 0x12A PUSH2 0x46A JUMP JUMPDEST PUSH1 0x40 MLOAD PUSH2 0x137 SWAP2 SWAP1 PUSH2 0x12BB JUMP JUMPDEST PUSH1 0x40 MLOAD DUP1 SWAP2 SUB SWAP1 RETURN JUMPDEST PUSH2 0x15A PUSH1 0x4 DUP1 CALLDATASIZE SUB DUP2 ADD SWAP1 PUSH2 0x155 SWAP2 SWAP1 PUSH2 0x12D6 JUMP JUMPDEST PUSH2 0x470 JUMP JUMPDEST PUSH1 0x40 MLOAD PUSH2 0x167 SWAP2 SWAP1 PUSH2 0x1291 JUMP JUMPDEST PUSH1 0x40 MLOAD DUP1 SWAP2 SUB SWAP1 RETURN JUMPDEST PUSH2 0x178 PUSH2 0x7D0 JUMP JUMPDEST PUSH1 0x40 MLOAD PUSH2 0x185 SWAP2 SWAP1 PUSH2 0x1345 JUMP JUMPDEST PUSH1 0x40 MLOAD DUP1 SWAP2 SUB SWAP1 RETURN JUMPDEST PUSH2 0x1A8 PUSH1 0x4 DUP1 CALLDATASIZE SUB DUP2 ADD SWAP1 PUSH2 0x1A3 SWAP2 SWAP1 PUSH2 0x1236 JUMP JUMPDEST PUSH2 0x7E3 JUMP JUMPDEST PUSH1 0x40 MLOAD PUSH2 0x1B5 SWAP2 SWAP1 PUSH2 0x1291 JUMP JUMPDEST PUSH1 0x40 MLOAD DUP1 SWAP2 SUB SWAP1 RETURN JUMPDEST PUSH2 0x1D8 PUSH1 0x4 DUP1 CALLDATASIZE SUB DUP2 ADD SWAP1 PUSH2 0x1D3 SWAP2 SWAP1 PUSH2 0x1360 JUMP JUMPDEST PUSH2 0x963 JUMP JUMPDEST PUSH1 0x40 MLOAD PUSH2 0x1E5 SWAP2 SWAP1 PUSH2 0x1291 JUMP JUMPDEST PUSH1 0x40 MLOAD DUP1 SWAP2 SUB SWAP1 RETURN JUMPDEST PUSH2 0x208 PUSH1 0x4 DUP1 CALLDATASIZE SUB DUP2 ADD SWAP1 PUSH2 0x203 SWAP2 SWAP1 PUSH2 0x138D JUMP JUMPDEST PUSH2 0xB46 JUMP JUMPDEST PUSH1 0x40 MLOAD PUSH2 0x215 SWAP2 SWAP1 PUSH2 0x12BB JUMP JUMPDEST PUSH1 0x40 MLOAD DUP1 SWAP2 SUB SWAP1 RETURN JUMPDEST PUSH2 0x226 PUSH2 0xB5E JUMP JUMPDEST PUSH1 0x40 MLOAD PUSH2 0x233 SWAP2 SWAP1 PUSH2 0x117B JUMP JUMPDEST PUSH1 0x40 MLOAD DUP1 SWAP2 SUB SWAP1 RETURN JUMPDEST PUSH2 0x256 PUSH1 0x4 DUP1 CALLDATASIZE SUB DUP2 ADD SWAP1 PUSH2 0x251 SWAP2 SWAP1 PUSH2 0x1236 JUMP JUMPDEST PUSH2 0xBEC JUMP JUMPDEST PUSH1 0x40 MLOAD PUSH2 0x263 SWAP2 SWAP1 PUSH2 0x1291 JUMP JUMPDEST PUSH1 0x40 MLOAD DUP1 SWAP2 SUB SWAP1 RETURN JUMPDEST PUSH2 0x286 PUSH1 0x4 DUP1 CALLDATASIZE SUB DUP2 ADD SWAP1 PUSH2 0x281 SWAP2 SWAP1 PUSH2 0x1236 JUMP JUMPDEST PUSH2 0xE2B JUMP JUMPDEST PUSH1 0x40 MLOAD PUSH2 0x293 SWAP2 SWAP1 PUSH2 0x1291 JUMP JUMPDEST PUSH1 0x40 MLOAD DUP1 SWAP2 SUB SWAP1 RETURN JUMPDEST PUSH2 0x2A4 PUSH2 0x1038 JUMP JUMPDEST PUSH1 0x40 MLOAD PUSH2 0x2B1 SWAP2 SWAP1 PUSH2 0x117B JUMP JUMPDEST PUSH1 0x40 MLOAD DUP1 SWAP2 SUB SWAP1 RETURN JUMPDEST PUSH2 0x2D4 PUSH1 0x4 DUP1 CALLDATASIZE SUB DUP2 ADD SWAP1 PUSH2 0x2CF SWAP2 SWAP1 PUSH2 0x13BA JUMP JUMPDEST PUSH2 0x10C6 JUMP JUMPDEST PUSH1 0x40 MLOAD PUSH2 0x2E1 SWAP2 SWAP1 PUSH2 0x12BB JUMP JUMPDEST PUSH1 0x40 MLOAD DUP1 SWAP2 SUB SWAP1 RETURN JUMPDEST PUSH1 0x0 DUP1 SLOAD PUSH2 0x2F7 SWAP1 PUSH2 0x1429 JUMP JUMPDEST DUP1 PUSH1 0x1F ADD PUSH1 0x20 DUP1 SWAP2 DIV MUL PUSH1 0x20 ADD PUSH1 0x40 MLOAD SWAP1 DUP2 ADD PUSH1 0x40 MSTORE DUP1 SWAP3 SWAP2 SWAP1 DUP2 DUP2 MSTORE PUSH1 0x20 ADD DUP3 DUP1 SLOAD PUSH2 0x323 SWAP1 PUSH2 0x1429 JUMP JUMPDEST DUP1 ISZERO PUSH2 0x370 JUMPI DUP1 PUSH1 0x1F LT PUSH2 0x345 JUMPI PUSH2 0x100 DUP1 DUP4 SLOAD DIV MUL DUP4 MSTORE SWAP2 PUSH1 0x20 ADD SWAP2 PUSH2 0x370 JUMP JUMPDEST DUP3 ADD SWAP2 SWAP1 PUSH1 0x0 MSTORE PUSH1 0x20 PUSH1 0x0 KECCAK256 SWAP1 JUMPDEST DUP2 SLOAD DUP2 MSTORE SWAP1 PUSH1 0x1 ADD SWAP1 PUSH1 0x20 ADD DUP1 DUP4 GT PUSH2 0x353 JUMPI DUP3 SWAP1 SUB PUSH1 0x1F AND DUP3 ADD SWAP2 JUMPDEST POP POP POP POP POP DUP2 JUMP JUMPDEST PUSH1 0x0 DUP2 PUSH1 0x6 PUSH1 0x0 CALLER PUSH20 0xFFFFFFFFFFFFFFFFFFFFFFFFFFFFFFFFFFFFFFFF AND PUSH20 0xFFFFFFFFFFFFFFFFFFFFFFFFFFFFFFFFFFFFFFFF AND DUP2 MSTORE PUSH1 0x20 ADD SWAP1 DUP2 MSTORE PUSH1 0x20 ADD PUSH1 0x0 KECCAK256 PUSH1 0x0 DUP6 PUSH20 0xFFFFFFFFFFFFFFFFFFFFFFFFFFFFFFFFFFFFFFFF AND PUSH20 0xFFFFFFFFFFFFFFFFFFFFFFFFFFFFFFFFFFFFFFFF AND DUP2 MSTORE PUSH1 0x20 ADD SWAP1 DUP2 MSTORE PUSH1 0x20 ADD PUSH1 0x0 KECCAK256 DUP2 SWAP1 SSTORE POP DUP3 PUSH20 0xFFFFFFFFFFFFFFFFFFFFFFFFFFFFFFFFFFFFFFFF AND CALLER PUSH20 0xFFFFFFFFFFFFFFFFFFFFFFFFFFFFFFFFFFFFFFFF AND PUSH32 0x8C5BE1E5EBEC7D5BD14F71427D1E84F3DD0314C0F7B2291E5B200AC8C7C3B925 DUP5 PUSH1 0x40 MLOAD PUSH2 0x458 SWAP2 SWAP1 PUSH2 0x12BB JUMP JUMPDEST PUSH1 0x40 MLOAD DUP1 SWAP2 SUB SWAP1 LOG3 PUSH1 0x1 SWAP1 POP SWAP3 SWAP2 POP POP JUMP JUMPDEST PUSH1 0x3 SLOAD DUP2 JUMP JUMPDEST PUSH1 0x0 DUP1 PUSH20 0xFFFFFFFFFFFFFFFFFFFFFFFFFFFFFFFFFFFFFFFF AND DUP4 PUSH20 0xFFFFFFFFFFFFFFFFFFFFFFFFFFFFFFFFFFFFFFFF AND SUB PUSH2 0x4E0 JUMPI PUSH1 0x40 MLOAD PUSH32 0x8C379A000000000000000000000000000000000000000000000000000000000 DUP2 MSTORE PUSH1 0x4 ADD PUSH2 0x4D7 SWAP1 PUSH2 0x14A6 JUMP JUMPDEST PUSH1 0x40 MLOAD DUP1 SWAP2 SUB SWAP1 REVERT JUMPDEST PUSH1 0x5 PUSH1 0x0 DUP6 PUSH20 0xFFFFFFFFFFFFFFFFFFFFFFFFFFFFFFFFFFFFFFFF AND PUSH20 0xFFFFFFFFFFFFFFFFFFFFFFFFFFFFFFFFFFFFFFFF AND DUP2 MSTORE PUSH1 0x20 ADD SWAP1 DUP2 MSTORE PUSH1 0x20 ADD PUSH1 0x0 KECCAK256 SLOAD DUP3 GT ISZERO PUSH2 0x562 JUMPI PUSH1 0x40 MLOAD PUSH32 0x8C379A000000000000000000000000000000000000000000000000000000000 DUP2 MSTORE PUSH1 0x4 ADD PUSH2 0x559 SWAP1 PUSH2 0x1512 JUMP JUMPDEST PUSH1 0x40 MLOAD DUP1 SWAP2 SUB SWAP1 REVERT JUMPDEST PUSH1 0x6 PUSH1 0x0 DUP6 PUSH20 0xFFFFFFFFFFFFFFFFFFFFFFFFFFFFFFFFFFFFFFFF AND PUSH20 0xFFFFFFFFFFFFFFFFFFFFFFFFFFFFFFFFFFFFFFFF AND DUP2 MSTORE PUSH1 0x20 ADD SWAP1 DUP2 MSTORE PUSH1 0x20 ADD PUSH1 0x0 KECCAK256 PUSH1 0x0 CALLER PUSH20 0xFFFFFFFFFFFFFFFFFFFFFFFFFFFFFFFFFFFFFFFF AND PUSH20 0xFFFFFFFFFFFFFFFFFFFFFFFFFFFFFFFFFFFFFFFF AND DUP2 MSTORE PUSH1 0x20 ADD SWAP1 DUP2 MSTORE PUSH1 0x20 ADD PUSH1 0x0 KECCAK256 SLOAD DUP3 GT ISZERO PUSH2 0x621 JUMPI PUSH1 0x40 MLOAD PUSH32 0x8C379A000000000000000000000000000000000000000000000000000000000 DUP2 MSTORE PUSH1 0x4 ADD PUSH2 0x618 SWAP1 PUSH2 0x157E JUMP JUMPDEST PUSH1 0x40 MLOAD DUP1 SWAP2 SUB SWAP1 REVERT JUMPDEST DUP2 PUSH1 0x6 PUSH1 0x0 DUP7 PUSH20 0xFFFFFFFFFFFFFFFFFFFFFFFFFFFFFFFFFFFFFFFF AND PUSH20 0xFFFFFFFFFFFFFFFFFFFFFFFFFFFFFFFFFFFFFFFF AND DUP2 MSTORE PUSH1 0x20 ADD SWAP1 DUP2 MSTORE PUSH1 0x20 ADD PUSH1 0x0 KECCAK256 PUSH1 0x0 CALLER PUSH20 0xFFFFFFFFFFFFFFFFFFFFFFFFFFFFFFFFFFFFFFFF AND PUSH20 0xFFFFFFFFFFFFFFFFFFFFFFFFFFFFFFFFFFFFFFFF AND DUP2 MSTORE PUSH1 0x20 ADD SWAP1 DUP2 MSTORE PUSH1 0x20 ADD PUSH1 0x0 KECCAK256 PUSH1 0x0 DUP3 DUP3 SLOAD PUSH2 0x6AD SWAP2 SWAP1 PUSH2 0x15CD JUMP JUMPDEST SWAP3 POP POP DUP2 SWAP1 SSTORE POP DUP2 PUSH1 0x5 PUSH1 0x0 DUP7 PUSH20 0xFFFFFFFFFFFFFFFFFFFFFFFFFFFFFFFFFFFFFFFF AND PUSH20 0xFFFFFFFFFFFFFFFFFFFFFFFFFFFFFFFFFFFFFFFF AND DUP2 MSTORE PUSH1 0x20 ADD SWAP1 DUP2 MSTORE PUSH1 0x20 ADD PUSH1 0x0 KECCAK256 PUSH1 0x0 DUP3 DUP3 SLOAD PUSH2 0x703 SWAP2 SWAP1 PUSH2 0x15CD JUMP JUMPDEST SWAP3 POP POP DUP2 SWAP1 SSTORE POP DUP2 PUSH1 0x5 PUSH1 0x0 DUP6 PUSH20 0xFFFFFFFFFFFFFFFFFFFFFFFFFFFFFFFFFFFFFFFF AND PUSH20 0xFFFFFFFFFFFFFFFFFFFFFFFFFFFFFFFFFFFFFFFF AND DUP2 MSTORE PUSH1 0x20 ADD SWAP1 DUP2 MSTORE PUSH1 0x20 ADD PUSH1 0x0 KECCAK256 PUSH1 0x0 DUP3 DUP3 SLOAD PUSH2 0x759 SWAP2 SWAP1 PUSH2 0x1601 JUMP JUMPDEST SWAP3 POP POP DUP2 SWAP1 SSTORE POP DUP3 PUSH20 0xFFFFFFFFFFFFFFFFFFFFFFFFFFFFFFFFFFFFFFFF AND DUP5 PUSH20 0xFFFFFFFFFFFFFFFFFFFFFFFFFFFFFFFFFFFFFFFF AND PUSH32 0xDDF252AD1BE2C89B69C2B068FC378DAA952BA7F163C4A11628F55A4DF523B3EF DUP5 PUSH1 0x40 MLOAD PUSH2 0x7BD SWAP2 SWAP1 PUSH2 0x12BB JUMP JUMPDEST PUSH1 0x40 MLOAD DUP1 SWAP2 SUB SWAP1 LOG3 PUSH1 0x1 SWAP1 POP SWAP4 SWAP3 POP POP POP JUMP JUMPDEST PUSH1 0x2 PUSH1 0x0 SWAP1 SLOAD SWAP1 PUSH2 0x100 EXP SWAP1 DIV PUSH1 0xFF AND DUP2 JUMP JUMPDEST PUSH1 0x0 DUP2 PUSH1 0x6 PUSH1 0x0 CALLER PUSH20 0xFFFFFFFFFFFFFFFFFFFFFFFFFFFFFFFFFFFFFFFF AND PUSH20 0xFFFFFFFFFFFFFFFFFFFFFFFFFFFFFFFFFFFFFFFF AND DUP2 MSTORE PUSH1 0x20 ADD SWAP1 DUP2 MSTORE PUSH1 0x20 ADD PUSH1 0x0 KECCAK256 PUSH1 0x0 DUP6 PUSH20 0xFFFFFFFFFFFFFFFFFFFFFFFFFFFFFFFFFFFFFFFF AND PUSH20 0xFFFFFFFFFFFFFFFFFFFFFFFFFFFFFFFFFFFFFFFF AND DUP2 MSTORE PUSH1 0x20 ADD SWAP1 DUP2 MSTORE PUSH1 0x20 ADD PUSH1 0x0 KECCAK256 PUSH1 0x0 DUP3 DUP3 SLOAD PUSH2 0x871 SWAP2 SWAP1 PUSH2 0x1601 JUMP JUMPDEST SWAP3 POP POP DUP2 SWAP1 SSTORE POP DUP3 PUSH20 0xFFFFFFFFFFFFFFFFFFFFFFFFFFFFFFFFFFFFFFFF AND CALLER PUSH20 0xFFFFFFFFFFFFFFFFFFFFFFFFFFFFFFFFFFFFFFFF AND PUSH32 0x8C5BE1E5EBEC7D5BD14F71427D1E84F3DD0314C0F7B2291E5B200AC8C7C3B925 PUSH1 0x6 PUSH1 0x0 CALLER PUSH20 0xFFFFFFFFFFFFFFFFFFFFFFFFFFFFFFFFFFFFFFFF AND PUSH20 0xFFFFFFFFFFFFFFFFFFFFFFFFFFFFFFFFFFFFFFFF AND DUP2 MSTORE PUSH1 0x20 ADD SWAP1 DUP2 MSTORE PUSH1 0x20 ADD PUSH1 0x0 KECCAK256 PUSH1 0x0 DUP8 PUSH20 0xFFFFFFFFFFFFFFFFFFFFFFFFFFFFFFFFFFFFFFFF AND PUSH20 0xFFFFFFFFFFFFFFFFFFFFFFFFFFFFFFFFFFFFFFFF AND DUP2 MSTORE PUSH1 0x20 ADD SWAP1 DUP2 MSTORE PUSH1 0x20 ADD PUSH1 0x0 KECCAK256 SLOAD PUSH1 0x40 MLOAD PUSH2 0x951 SWAP2 SWAP1 PUSH2 0x12BB JUMP JUMPDEST PUSH1 0x40 MLOAD DUP1 SWAP2 SUB SWAP1 LOG3 PUSH1 0x1 SWAP1 POP SWAP3 SWAP2 POP POP JUMP JUMPDEST PUSH1 0x0 DUP1 PUSH1 0x5 PUSH1 0x0 CALLER PUSH20 0xFFFFFFFFFFFFFFFFFFFFFFFFFFFFFFFFFFFFFFFF AND PUSH20 0xFFFFFFFFFFFFFFFFFFFFFFFFFFFFFFFFFFFFFFFF AND DUP2 MSTORE PUSH1 0x20 ADD SWAP1 DUP2 MSTORE PUSH1 0x20 ADD PUSH1 0x0 KECCAK256 SLOAD GT PUSH2 0x9E6 JUMPI PUSH1 0x40 MLOAD PUSH32 0x8C379A000000000000000000000000000000000000000000000000000000000 DUP2 MSTORE PUSH1 0x4 ADD PUSH2 0x9DD SWAP1 PUSH2 0x1681 JUMP JUMPDEST PUSH1 0x40 MLOAD DUP1 SWAP2 SUB SWAP1 REVERT JUMPDEST DUP2 PUSH1 0x5 PUSH1 0x0 CALLER PUSH20 0xFFFFFFFFFFFFFFFFFFFFFFFFFFFFFFFFFFFFFFFF AND PUSH20 0xFFFFFFFFFFFFFFFFFFFFFFFFFFFFFFFFFFFFFFFF AND DUP2 MSTORE PUSH1 0x20 ADD SWAP1 DUP2 MSTORE PUSH1 0x20 ADD PUSH1 0x0 KECCAK256 SLOAD LT ISZERO PUSH2 0xA68 JUMPI PUSH1 0x40 MLOAD PUSH32 0x8C379A000000000000000000000000000000000000000000000000000000000 DUP2 MSTORE PUSH1 0x4 ADD PUSH2 0xA5F SWAP1 PUSH2 0x16ED JUMP JUMPDEST PUSH1 0x40 MLOAD DUP1 SWAP2 SUB SWAP1 REVERT JUMPDEST DUP2 PUSH1 0x5 PUSH1 0x0 CALLER PUSH20 0xFFFFFFFFFFFFFFFFFFFFFFFFFFFFFFFFFFFFFFFF AND PUSH20 0xFFFFFFFFFFFFFFFFFFFFFFFFFFFFFFFFFFFFFFFF AND DUP2 MSTORE PUSH1 0x20 ADD SWAP1 DUP2 MSTORE PUSH1 0x20 ADD PUSH1 0x0 KECCAK256 PUSH1 0x0 DUP3 DUP3 SLOAD PUSH2 0xAB7 SWAP2 SWAP1 PUSH2 0x15CD JUMP JUMPDEST SWAP3 POP POP DUP2 SWAP1 SSTORE POP DUP2 PUSH1 0x3 PUSH1 0x0 DUP3 DUP3 SLOAD PUSH2 0xAD0 SWAP2 SWAP1 PUSH2 0x15CD JUMP JUMPDEST SWAP3 POP POP DUP2 SWAP1 SSTORE POP PUSH1 0x0 PUSH20 0xFFFFFFFFFFFFFFFFFFFFFFFFFFFFFFFFFFFFFFFF AND CALLER PUSH20 0xFFFFFFFFFFFFFFFFFFFFFFFFFFFFFFFFFFFFFFFF AND PUSH32 0xDDF252AD1BE2C89B69C2B068FC378DAA952BA7F163C4A11628F55A4DF523B3EF DUP5 PUSH1 0x40 MLOAD PUSH2 0xB35 SWAP2 SWAP1 PUSH2 0x12BB JUMP JUMPDEST PUSH1 0x40 MLOAD DUP1 SWAP2 SUB SWAP1 LOG3 PUSH1 0x1 SWAP1 POP SWAP2 SWAP1 POP JUMP JUMPDEST PUSH1 0x5 PUSH1 0x20 MSTORE DUP1 PUSH1 0x0 MSTORE PUSH1 0x40 PUSH1 0x0 KECCAK256 PUSH1 0x0 SWAP2 POP SWAP1 POP SLOAD DUP2 JUMP JUMPDEST PUSH1 0x1 DUP1 SLOAD PUSH2 0xB6B SWAP1 PUSH2 0x1429 JUMP JUMPDEST DUP1 PUSH1 0x1F ADD PUSH1 0x20 DUP1 SWAP2 DIV MUL PUSH1 0x20 ADD PUSH1 0x40 MLOAD SWAP1 DUP2 ADD PUSH1 0x40 MSTORE DUP1 SWAP3 SWAP2 SWAP1 DUP2 DUP2 MSTORE PUSH1 0x20 ADD DUP3 DUP1 SLOAD PUSH2 0xB97 SWAP1 PUSH2 0x1429 JUMP JUMPDEST DUP1 ISZERO PUSH2 0xBE4 JUMPI DUP1 PUSH1 0x1F LT PUSH2 0xBB9 JUMPI PUSH2 0x100 DUP1 DUP4 SLOAD DIV MUL DUP4 MSTORE SWAP2 PUSH1 0x20 ADD SWAP2 PUSH2 0xBE4 JUMP JUMPDEST DUP3 ADD SWAP2 SWAP1 PUSH1 0x0 MSTORE PUSH1 0x20 PUSH1 0x0 KECCAK256 SWAP1 JUMPDEST DUP2 SLOAD DUP2 MSTORE SWAP1 PUSH1 0x1 ADD SWAP1 PUSH1 0x20 ADD DUP1 DUP4 GT PUSH2 0xBC7 JUMPI DUP3 SWAP1 SUB PUSH1 0x1F AND DUP3 ADD SWAP2 JUMPDEST POP POP POP POP POP DUP2 JUMP JUMPDEST PUSH1 0x0 DUP2 PUSH1 0x6 PUSH1 0x0 CALLER PUSH20 0xFFFFFFFFFFFFFFFFFFFFFFFFFFFFFFFFFFFFFFFF AND PUSH20 0xFFFFFFFFFFFFFFFFFFFFFFFFFFFFFFFFFFFFFFFF AND DUP2 MSTORE PUSH1 0x20 ADD SWAP1 DUP2 MSTORE PUSH1 0x20 ADD PUSH1 0x0 KECCAK256 PUSH1 0x0 DUP6 PUSH20 0xFFFFFFFFFFFFFFFFFFFFFFFFFFFFFFFFFFFFFFFF AND PUSH20 0xFFFFFFFFFFFFFFFFFFFFFFFFFFFFFFFFFFFFFFFF AND DUP2 MSTORE PUSH1 0x20 ADD SWAP1 DUP2 MSTORE PUSH1 0x20 ADD PUSH1 0x0 KECCAK256 SLOAD LT ISZERO PUSH2 0xCAD JUMPI PUSH1 0x40 MLOAD PUSH32 0x8C379A000000000000000000000000000000000000000000000000000000000 DUP2 MSTORE PUSH1 0x4 ADD PUSH2 0xCA4 SWAP1 PUSH2 0x1759 JUMP JUMPDEST PUSH1 0x40 MLOAD DUP1 SWAP2 SUB SWAP1 REVERT JUMPDEST DUP2 PUSH1 0x6 PUSH1 0x0 CALLER PUSH20 0xFFFFFFFFFFFFFFFFFFFFFFFFFFFFFFFFFFFFFFFF AND PUSH20 0xFFFFFFFFFFFFFFFFFFFFFFFFFFFFFFFFFFFFFFFF AND DUP2 MSTORE PUSH1 0x20 ADD SWAP1 DUP2 MSTORE PUSH1 0x20 ADD PUSH1 0x0 KECCAK256 PUSH1 0x0 DUP6 PUSH20 0xFFFFFFFFFFFFFFFFFFFFFFFFFFFFFFFFFFFFFFFF AND PUSH20 0xFFFFFFFFFFFFFFFFFFFFFFFFFFFFFFFFFFFFFFFF AND DUP2 MSTORE PUSH1 0x20 ADD SWAP1 DUP2 MSTORE PUSH1 0x20 ADD PUSH1 0x0 KECCAK256 PUSH1 0x0 DUP3 DUP3 SLOAD PUSH2 0xD39 SWAP2 SWAP1 PUSH2 0x15CD JUMP JUMPDEST SWAP3 POP POP DUP2 SWAP1 SSTORE POP DUP3 PUSH20 0xFFFFFFFFFFFFFFFFFFFFFFFFFFFFFFFFFFFFFFFF AND CALLER PUSH20 0xFFFFFFFFFFFFFFFFFFFFFFFFFFFFFFFFFFFFFFFF AND PUSH32 0x8C5BE1E5EBEC7D5BD14F71427D1E84F3DD0314C0F7B2291E5B200AC8C7C3B925 PUSH1 0x6 PUSH1 0x0 CALLER PUSH20 0xFFFFFFFFFFFFFFFFFFFFFFFFFFFFFFFFFFFFFFFF AND PUSH20 0xFFFFFFFFFFFFFFFFFFFFFFFFFFFFFFFFFFFFFFFF AND DUP2 MSTORE PUSH1 0x20 ADD SWAP1 DUP2 MSTORE PUSH1 0x20 ADD PUSH1 0x0 KECCAK256 PUSH1 0x0 DUP8 PUSH20 0xFFFFFFFFFFFFFFFFFFFFFFFFFFFFFFFFFFFFFFFF AND PUSH20 0xFFFFFFFFFFFFFFFFFFFFFFFFFFFFFFFFFFFFFFFF AND DUP2 MSTORE PUSH1 0x20 ADD SWAP1 DUP2 MSTORE PUSH1 0x20 ADD PUSH1 0x0 KECCAK256 SLOAD PUSH1 0x40 MLOAD PUSH2 0xE19 SWAP2 SWAP1 PUSH2 0x12BB JUMP JUMPDEST PUSH1 0x40 MLOAD DUP1 SWAP2 SUB SWAP1 LOG3 PUSH1 0x1 SWAP1 POP SWAP3 SWAP2 POP POP JUMP JUMPDEST PUSH1 0x0 DUP1 PUSH20 0xFFFFFFFFFFFFFFFFFFFFFFFFFFFFFFFFFFFFFFFF AND DUP4 PUSH20 0xFFFFFFFFFFFFFFFFFFFFFFFFFFFFFFFFFFFFFFFF AND SUB PUSH2 0xE9B JUMPI PUSH1 0x40 MLOAD PUSH32 0x8C379A000000000000000000000000000000000000000000000000000000000 DUP2 MSTORE PUSH1 0x4 ADD PUSH2 0xE92 SWAP1 PUSH2 0x14A6 JUMP JUMPDEST PUSH1 0x40 MLOAD DUP1 SWAP2 SUB SWAP1 REVERT JUMPDEST DUP2 PUSH1 0x5 PUSH1 0x0 CALLER PUSH20 0xFFFFFFFFFFFFFFFFFFFFFFFFFFFFFFFFFFFFFFFF AND PUSH20 0xFFFFFFFFFFFFFFFFFFFFFFFFFFFFFFFFFFFFFFFF AND DUP2 MSTORE PUSH1 0x20 ADD SWAP1 DUP2 MSTORE PUSH1 0x20 ADD PUSH1 0x0 KECCAK256 SLOAD LT ISZERO PUSH2 0xF1D JUMPI PUSH1 0x40 MLOAD PUSH32 0x8C379A000000000000000000000000000000000000000000000000000000000 DUP2 MSTORE PUSH1 0x4 ADD PUSH2 0xF14 SWAP1 PUSH2 0x1512 JUMP JUMPDEST PUSH1 0x40 MLOAD DUP1 SWAP2 SUB SWAP1 REVERT JUMPDEST DUP2 PUSH1 0x5 PUSH1 0x0 CALLER PUSH20 0xFFFFFFFFFFFFFFFFFFFFFFFFFFFFFFFFFFFFFFFF AND PUSH20 0xFFFFFFFFFFFFFFFFFFFFFFFFFFFFFFFFFFFFFFFF AND DUP2 MSTORE PUSH1 0x20 ADD SWAP1 DUP2 MSTORE PUSH1 0x20 ADD PUSH1 0x0 KECCAK256 PUSH1 0x0 DUP3 DUP3 SLOAD PUSH2 0xF6C SWAP2 SWAP1 PUSH2 0x15CD JUMP JUMPDEST SWAP3 POP POP DUP2 SWAP1 SSTORE POP DUP2 PUSH1 0x5 PUSH1 0x0 DUP6 PUSH20 0xFFFFFFFFFFFFFFFFFFFFFFFFFFFFFFFFFFFFFFFF AND PUSH20 0xFFFFFFFFFFFFFFFFFFFFFFFFFFFFFFFFFFFFFFFF AND DUP2 MSTORE PUSH1 0x20 ADD SWAP1 DUP2 MSTORE PUSH1 0x20 ADD PUSH1 0x0 KECCAK256 PUSH1 0x0 DUP3 DUP3 SLOAD PUSH2 0xFC2 SWAP2 SWAP1 PUSH2 0x1601 JUMP JUMPDEST SWAP3 POP POP DUP2 SWAP1 SSTORE POP DUP3 PUSH20 0xFFFFFFFFFFFFFFFFFFFFFFFFFFFFFFFFFFFFFFFF AND CALLER PUSH20 0xFFFFFFFFFFFFFFFFFFFFFFFFFFFFFFFFFFFFFFFF AND PUSH32 0xDDF252AD1BE2C89B69C2B068FC378DAA952BA7F163C4A11628F55A4DF523B3EF DUP5 PUSH1 0x40 MLOAD PUSH2 0x1026 SWAP2 SWAP1 PUSH2 0x12BB JUMP JUMPDEST PUSH1 0x40 MLOAD DUP1 SWAP2 SUB SWAP1 LOG3 PUSH1 0x1 SWAP1 POP SWAP3 SWAP2 POP POP JUMP JUMPDEST PUSH1 0x4 DUP1 SLOAD PUSH2 0x1045 SWAP1 PUSH2 0x1429 JUMP JUMPDEST DUP1 PUSH1 0x1F ADD PUSH1 0x20 DUP1 SWAP2 DIV MUL PUSH1 0x20 ADD PUSH1 0x40 MLOAD SWAP1 DUP2 ADD PUSH1 0x40 MSTORE DUP1 SWAP3 SWAP2 SWAP1 DUP2 DUP2 MSTORE PUSH1 0x20 ADD DUP3 DUP1 SLOAD PUSH2 0x1071 SWAP1 PUSH2 0x1429 JUMP JUMPDEST DUP1 ISZERO PUSH2 0x10BE JUMPI DUP1 PUSH1 0x1F LT PUSH2 0x1093 JUMPI PUSH2 0x100 DUP1 DUP4 SLOAD DIV MUL DUP4 MSTORE SWAP2 PUSH1 0x20 ADD SWAP2 PUSH2 0x10BE JUMP JUMPDEST DUP3 ADD SWAP2 SWAP1 PUSH1 0x0 MSTORE PUSH1 0x20 PUSH1 0x0 KECCAK256 SWAP1 JUMPDEST DUP2 SLOAD DUP2 MSTORE SWAP1 PUSH1 0x1 ADD SWAP1 PUSH1 0x20 ADD DUP1 DUP4 GT PUSH2 0x10A1 JUMPI DUP3 SWAP1 SUB PUSH1 0x1F AND DUP3 ADD SWAP2 JUMPDEST POP POP POP POP POP DUP2 JUMP JUMPDEST PUSH1 0x6 PUSH1 0x20 MSTORE DUP2 PUSH1 0x0 MSTORE PUSH1 0x40 PUSH1 0x0 KECCAK256 PUSH1 0x20 MSTORE DUP1 PUSH1 0x0 MSTORE PUSH1 0x40 PUSH1 0x0 KECCAK256 PUSH1 0x0 SWAP2 POP SWAP2 POP POP SLOAD DUP2 JUMP JUMPDEST PUSH1 0x0 DUP2 MLOAD SWAP1 POP SWAP2 SWAP1 POP JUMP JUMPDEST PUSH1 0x0 DUP3 DUP3 MSTORE PUSH1 0x20 DUP3 ADD SWAP1 POP SWAP3 SWAP2 POP POP JUMP JUMPDEST PUSH1 0x0 JUMPDEST DUP4 DUP2 LT ISZERO PUSH2 0x1125 JUMPI DUP1 DUP3 ADD MLOAD DUP2 DUP5 ADD MSTORE PUSH1 0x20 DUP2 ADD SWAP1 POP PUSH2 0x110A JUMP JUMPDEST PUSH1 0x0 DUP5 DUP5 ADD MSTORE POP POP POP POP JUMP JUMPDEST PUSH1 0x0 PUSH1 0x1F NOT PUSH1 0x1F DUP4 ADD AND SWAP1 POP SWAP2 SWAP1 POP JUMP JUMPDEST PUSH1 0x0 PUSH2 0x114D DUP3 PUSH2 0x10EB JUMP JUMPDEST PUSH2 0x1157 DUP2 DUP6 PUSH2 0x10F6 JUMP JUMPDEST SWAP4 POP PUSH2 0x1167 DUP2 DUP6 PUSH1 0x20 DUP7 ADD PUSH2 0x1107 JUMP JUMPDEST PUSH2 0x1170 DUP2 PUSH2 0x1131 JUMP JUMPDEST DUP5 ADD SWAP2 POP POP SWAP3 SWAP2 POP POP JUMP JUMPDEST PUSH1 0x0 PUSH1 0x20 DUP3 ADD SWAP1 POP DUP2 DUP2 SUB PUSH1 0x0 DUP4 ADD MSTORE PUSH2 0x1195 DUP2 DUP5 PUSH2 0x1142 JUMP JUMPDEST SWAP1 POP SWAP3 SWAP2 POP POP JUMP JUMPDEST PUSH1 0x0 DUP1 REVERT JUMPDEST PUSH1 0x0 PUSH20 0xFFFFFFFFFFFFFFFFFFFFFFFFFFFFFFFFFFFFFFFF DUP3 AND SWAP1 POP SWAP2 SWAP1 POP JUMP JUMPDEST PUSH1 0x0 PUSH2 0x11CD DUP3 PUSH2 0x11A2 JUMP JUMPDEST SWAP1 POP SWAP2 SWAP1 POP JUMP JUMPDEST PUSH2 0x11DD DUP2 PUSH2 0x11C2 JUMP JUMPDEST DUP2 EQ PUSH2 0x11E8 JUMPI PUSH1 0x0 DUP1 REVERT JUMPDEST POP JUMP JUMPDEST PUSH1 0x0 DUP2 CALLDATALOAD SWAP1 POP PUSH2 0x11FA DUP2 PUSH2 0x11D4 JUMP JUMPDEST SWAP3 SWAP2 POP POP JUMP JUMPDEST PUSH1 0x0 DUP2 SWAP1 POP SWAP2 SWAP1 POP JUMP JUMPDEST PUSH2 0x1213 DUP2 PUSH2 0x1200 JUMP JUMPDEST DUP2 EQ PUSH2 0x121E JUMPI PUSH1 0x0 DUP1 REVERT JUMPDEST POP JUMP JUMPDEST PUSH1 0x0 DUP2 CALLDATALOAD SWAP1 POP PUSH2 0x1230 DUP2 PUSH2 0x120A JUMP JUMPDEST SWAP3 SWAP2 POP POP JUMP JUMPDEST PUSH1 0x0 DUP1 PUSH1 0x40 DUP4 DUP6 SUB SLT ISZERO PUSH2 0x124D JUMPI PUSH2 0x124C PUSH2 0x119D JUMP JUMPDEST JUMPDEST PUSH1 0x0 PUSH2 0x125B DUP6 DUP3 DUP7 ADD PUSH2 0x11EB JUMP JUMPDEST SWAP3 POP POP PUSH1 0x20 PUSH2 0x126C DUP6 DUP3 DUP7 ADD PUSH2 0x1221 JUMP JUMPDEST SWAP2 POP POP SWAP3 POP SWAP3 SWAP1 POP JUMP JUMPDEST PUSH1 0x0 DUP2 ISZERO ISZERO SWAP1 POP SWAP2 SWAP1 POP JUMP JUMPDEST PUSH2 0x128B DUP2 PUSH2 0x1276 JUMP JUMPDEST DUP3 MSTORE POP POP JUMP JUMPDEST PUSH1 0x0 PUSH1 0x20 DUP3 ADD SWAP1 POP PUSH2 0x12A6 PUSH1 0x0 DUP4 ADD DUP5 PUSH2 0x1282 JUMP JUMPDEST SWAP3 SWAP2 POP POP JUMP JUMPDEST PUSH2 0x12B5 DUP2 PUSH2 0x1200 JUMP JUMPDEST DUP3 MSTORE POP POP JUMP JUMPDEST PUSH1 0x0 PUSH1 0x20 DUP3 ADD SWAP1 POP PUSH2 0x12D0 PUSH1 0x0 DUP4 ADD DUP5 PUSH2 0x12AC JUMP JUMPDEST SWAP3 SWAP2 POP POP JUMP JUMPDEST PUSH1 0x0 DUP1 PUSH1 0x0 PUSH1 0x60 DUP5 DUP7 SUB SLT ISZERO PUSH2 0x12EF JUMPI PUSH2 0x12EE PUSH2 0x119D JUMP JUMPDEST JUMPDEST PUSH1 0x0 PUSH2 0x12FD DUP7 DUP3 DUP8 ADD PUSH2 0x11EB JUMP JUMPDEST SWAP4 POP POP PUSH1 0x20 PUSH2 0x130E DUP7 DUP3 DUP8 ADD PUSH2 0x11EB JUMP JUMPDEST SWAP3 POP POP PUSH1 0x40 PUSH2 0x131F DUP7 DUP3 DUP8 ADD PUSH2 0x1221 JUMP JUMPDEST SWAP2 POP POP SWAP3 POP SWAP3 POP SWAP3 JUMP JUMPDEST PUSH1 0x0 PUSH1 0xFF DUP3 AND SWAP1 POP SWAP2 SWAP1 POP JUMP JUMPDEST PUSH2 0x133F DUP2 PUSH2 0x1329 JUMP JUMPDEST DUP3 MSTORE POP POP JUMP JUMPDEST PUSH1 0x0 PUSH1 0x20 DUP3 ADD SWAP1 POP PUSH2 0x135A PUSH1 0x0 DUP4 ADD DUP5 PUSH2 0x1336 JUMP JUMPDEST SWAP3 SWAP2 POP POP JUMP JUMPDEST PUSH1 0x0 PUSH1 0x20 DUP3 DUP5 SUB SLT ISZERO PUSH2 0x1376 JUMPI PUSH2 0x1375 PUSH2 0x119D JUMP JUMPDEST JUMPDEST PUSH1 0x0 PUSH2 0x1384 DUP5 DUP3 DUP6 ADD PUSH2 0x1221 JUMP JUMPDEST SWAP2 POP POP SWAP3 SWAP2 POP POP JUMP JUMPDEST PUSH1 0x0 PUSH1 0x20 DUP3 DUP5 SUB SLT ISZERO PUSH2 0x13A3 JUMPI PUSH2 0x13A2 PUSH2 0x119D JUMP JUMPDEST JUMPDEST PUSH1 0x0 PUSH2 0x13B1 DUP5 DUP3 DUP6 ADD PUSH2 0x11EB JUMP JUMPDEST SWAP2 POP POP SWAP3 SWAP2 POP POP JUMP JUMPDEST PUSH1 0x0 DUP1 PUSH1 0x40 DUP4 DUP6 SUB SLT ISZERO PUSH2 0x13D1 JUMPI PUSH2 0x13D0 PUSH2 0x119D JUMP JUMPDEST JUMPDEST PUSH1 0x0 PUSH2 0x13DF DUP6 DUP3 DUP7 ADD PUSH2 0x11EB JUMP JUMPDEST SWAP3 POP POP PUSH1 0x20 PUSH2 0x13F0 DUP6 DUP3 DUP7 ADD PUSH2 0x11EB JUMP JUMPDEST SWAP2 POP POP SWAP3 POP SWAP3 SWAP1 POP JUMP JUMPDEST PUSH32 0x4E487B7100000000000000000000000000000000000000000000000000000000 PUSH1 0x0 MSTORE PUSH1 0x22 PUSH1 0x4 MSTORE PUSH1 0x24 PUSH1 0x0 REVERT JUMPDEST PUSH1 0x0 PUSH1 0x2 DUP3 DIV SWAP1 POP PUSH1 0x1 DUP3 AND DUP1 PUSH2 0x1441 JUMPI PUSH1 0x7F DUP3 AND SWAP2 POP JUMPDEST PUSH1 0x20 DUP3 LT DUP2 SUB PUSH2 0x1454 JUMPI PUSH2 0x1453 PUSH2 0x13FA JUMP JUMPDEST JUMPDEST POP SWAP2 SWAP1 POP JUMP JUMPDEST PUSH32 0x43616E6E6F74207472616E7366657220746F207A65726F206164647265737300 PUSH1 0x0 DUP3 ADD MSTORE POP JUMP JUMPDEST PUSH1 0x0 PUSH2 0x1490 PUSH1 0x1F DUP4 PUSH2 0x10F6 JUMP JUMPDEST SWAP2 POP PUSH2 0x149B DUP3 PUSH2 0x145A JUMP JUMPDEST PUSH1 0x20 DUP3 ADD SWAP1 POP SWAP2 SWAP1 POP JUMP JUMPDEST PUSH1 0x0 PUSH1 0x20 DUP3 ADD SWAP1 POP DUP2 DUP2 SUB PUSH1 0x0 DUP4 ADD MSTORE PUSH2 0x14BF DUP2 PUSH2 0x1483 JUMP JUMPDEST SWAP1 POP SWAP2 SWAP1 POP JUMP JUMPDEST PUSH32 0x596574657273697A2062616B6979650000000000000000000000000000000000 PUSH1 0x0 DUP3 ADD MSTORE POP JUMP JUMPDEST PUSH1 0x0 PUSH2 0x14FC PUSH1 0xF DUP4 PUSH2 0x10F6 JUMP JUMPDEST SWAP2 POP PUSH2 0x1507 DUP3 PUSH2 0x14C6 JUMP JUMPDEST PUSH1 0x20 DUP3 ADD SWAP1 POP SWAP2 SWAP1 POP JUMP JUMPDEST PUSH1 0x0 PUSH1 0x20 DUP3 ADD SWAP1 POP DUP2 DUP2 SUB PUSH1 0x0 DUP4 ADD MSTORE PUSH2 0x152B DUP2 PUSH2 0x14EF JUMP JUMPDEST SWAP1 POP SWAP2 SWAP1 POP JUMP JUMPDEST PUSH32 0x497A696E20766572696C656E206D696B7461726920617369796F720000000000 PUSH1 0x0 DUP3 ADD MSTORE POP JUMP JUMPDEST PUSH1 0x0 PUSH2 0x1568 PUSH1 0x1B DUP4 PUSH2 0x10F6 JUMP JUMPDEST SWAP2 POP PUSH2 0x1573 DUP3 PUSH2 0x1532 JUMP JUMPDEST PUSH1 0x20 DUP3 ADD SWAP1 POP SWAP2 SWAP1 POP JUMP JUMPDEST PUSH1 0x0 PUSH1 0x20 DUP3 ADD SWAP1 POP DUP2 DUP2 SUB PUSH1 0x0 DUP4 ADD MSTORE PUSH2 0x1597 DUP2 PUSH2 0x155B JUMP JUMPDEST SWAP1 POP SWAP2 SWAP1 POP JUMP JUMPDEST PUSH32 0x4E487B7100000000000000000000000000000000000000000000000000000000 PUSH1 0x0 MSTORE PUSH1 0x11 PUSH1 0x4 MSTORE PUSH1 0x24 PUSH1 0x0 REVERT JUMPDEST PUSH1 0x0 PUSH2 0x15D8 DUP3 PUSH2 0x1200 JUMP JUMPDEST SWAP2 POP PUSH2 0x15E3 DUP4 PUSH2 0x1200 JUMP JUMPDEST SWAP3 POP DUP3 DUP3 SUB SWAP1 POP DUP2 DUP2 GT ISZERO PUSH2 0x15FB JUMPI PUSH2 0x15FA PUSH2 0x159E JUMP JUMPDEST JUMPDEST SWAP3 SWAP2 POP POP JUMP JUMPDEST PUSH1 0x0 PUSH2 0x160C DUP3 PUSH2 0x1200 JUMP JUMPDEST SWAP2 POP PUSH2 0x1617 DUP4 PUSH2 0x1200 JUMP JUMPDEST SWAP3 POP DUP3 DUP3 ADD SWAP1 POP DUP1 DUP3 GT ISZERO PUSH2 0x162F JUMPI PUSH2 0x162E PUSH2 0x159E JUMP JUMPDEST JUMPDEST SWAP3 SWAP2 POP POP JUMP JUMPDEST PUSH32 0x4163636F756E7420686173207A65726F2062616C616E63650000000000000000 PUSH1 0x0 DUP3 ADD MSTORE POP JUMP JUMPDEST PUSH1 0x0 PUSH2 0x166B PUSH1 0x18 DUP4 PUSH2 0x10F6 JUMP JUMPDEST SWAP2 POP PUSH2 0x1676 DUP3 PUSH2 0x1635 JUMP JUMPDEST PUSH1 0x20 DUP3 ADD SWAP1 POP SWAP2 SWAP1 POP JUMP JUMPDEST PUSH1 0x0 PUSH1 0x20 DUP3 ADD SWAP1 POP DUP2 DUP2 SUB PUSH1 0x0 DUP4 ADD MSTORE PUSH2 0x169A DUP2 PUSH2 0x165E JUMP JUMPDEST SWAP1 POP SWAP2 SWAP1 POP JUMP JUMPDEST PUSH32 0x496E73756666696369656E742062616C616E636520746F206275726E00000000 PUSH1 0x0 DUP3 ADD MSTORE POP JUMP JUMPDEST PUSH1 0x0 PUSH2 0x16D7 PUSH1 0x1C DUP4 PUSH2 0x10F6 JUMP JUMPDEST SWAP2 POP PUSH2 0x16E2 DUP3 PUSH2 0x16A1 JUMP JUMPDEST PUSH1 0x20 DUP3 ADD SWAP1 POP SWAP2 SWAP1 POP JUMP JUMPDEST PUSH1 0x0 PUSH1 0x20 DUP3 ADD SWAP1 POP DUP2 DUP2 SUB PUSH1 0x0 DUP4 ADD MSTORE PUSH2 0x1706 DUP2 PUSH2 0x16CA JUMP JUMPDEST SWAP1 POP SWAP2 SWAP1 POP JUMP JUMPDEST PUSH32 0x416C6C6F77616E636520746F6F206C6F7720746F206465637265617365000000 PUSH1 0x0 DUP3 ADD MSTORE POP JUMP JUMPDEST PUSH1 0x0 PUSH2 0x1743 PUSH1 0x1D DUP4 PUSH2 0x10F6 JUMP JUMPDEST SWAP2 POP PUSH2 0x174E DUP3 PUSH2 0x170D JUMP JUMPDEST PUSH1 0x20 DUP3 ADD SWAP1 POP SWAP2 SWAP1 POP JUMP JUMPDEST PUSH1 0x0 PUSH1 0x20 DUP3 ADD SWAP1 POP DUP2 DUP2 SUB PUSH1 0x0 DUP4 ADD MSTORE PUSH2 0x1772 DUP2 PUSH2 0x1736 JUMP JUMPDEST SWAP1 POP SWAP2 SWAP1 POP JUMP INVALID LOG2 PUSH5 0x6970667358 0x22 SLT KECCAK256 PUSH15 0x46993F2F3D585E782A0208E42D1DED 0xAF CALLVALUE SWAP10 RETURNDATASIZE 0xE6 PUSH7 0xE41A875F43D511 PUSH5 0x6D7864736F PUSH13 0x63430008120033A26469706673 PC 0x22 SLT KECCAK256 0x5C REVERT 0x1F 0xAC LT 0xF7 0xE4 PUSH28 0xCE817410DA00FD1147D67B1B1AA49FB0107BB542D9E89E5E64736F6C PUSH4 0x43000812 STOP CALLER "
		},
		"gasEstimates": {
			"creation": {
				"codeDepositCost": "3098600",
				"executionCost": "infinite",
				"totalCost": "infinite"
			},
			"external": {
				"CREATION_FEE()": "352",
				"createToken(string,string,uint256,uint8,string,bool)": "infinite",
				"deployedTokens(uint256)": "5022",
				"feeRecipients(uint256)": "5001",
				"getDeployedTokens()": "infinite",
				"getListedTokens()": "infinite",
				"listedTokens(address)": "2867"
			}
		},
		"methodIdentifiers": {
			"CREATION_FEE()": "49a2104d",
			"createToken(string,string,uint256,uint8,string,bool)": "a56922a8",
			"deployedTokens(uint256)": "ec81aadb",
			"feeRecipients(uint256)": "51fe9eff",
			"getDeployedTokens()": "622ae7aa",
			"getListedTokens()": "2ba996a5",
			"listedTokens(address)": "7093f47f"
		}
	},
	"abi": [
		{
			"inputs": [
				{
					"internalType": "address payable",
					"name": "_recipient1",
					"type": "address"
				},
				{
					"internalType": "address payable",
					"name": "_recipient2",
					"type": "address"
				},
				{
					"internalType": "address payable",
					"name": "_recipient3",
					"type": "address"
				}
			],
			"stateMutability": "nonpayable",
			"type": "constructor"
		},
		{
			"anonymous": false,
			"inputs": [
				{
					"indexed": true,
					"internalType": "address",
					"name": "tokenAddress",
					"type": "address"
				},
				{
					"indexed": false,
					"internalType": "string",
					"name": "name",
					"type": "string"
				},
				{
					"indexed": false,
					"internalType": "string",
					"name": "symbol",
					"type": "string"
				},
				{
					"indexed": false,
					"internalType": "uint256",
					"name": "totalSupply",
					"type": "uint256"
				},
				{
					"indexed": false,
					"internalType": "uint8",
					"name": "decimals",
					"type": "uint8"
				},
				{
					"indexed": false,
					"internalType": "string",
					"name": "website",
					"type": "string"
				},
				{
					"indexed": true,
					"internalType": "address",
					"name": "creator",
					"type": "address"
				},
				{
					"indexed": false,
					"internalType": "bool",
					"name": "listInAllTokens",
					"type": "bool"
				}
			],
			"name": "TokenCreated",
			"type": "event"
		},
		{
			"inputs": [],
			"name": "CREATION_FEE",
			"outputs": [
				{
					"internalType": "uint256",
					"name": "",
					"type": "uint256"
				}
			],
			"stateMutability": "view",
			"type": "function"
		},
		{
			"inputs": [
				{
					"internalType": "string",
					"name": "name",
					"type": "string"
				},
				{
					"internalType": "string",
					"name": "symbol",
					"type": "string"
				},
				{
					"internalType": "uint256",
					"name": "totalSupply",
					"type": "uint256"
				},
				{
					"internalType": "uint8",
					"name": "decimals",
					"type": "uint8"
				},
				{
					"internalType": "string",
					"name": "website",
					"type": "string"
				},
				{
					"internalType": "bool",
					"name": "listInAllTokens",
					"type": "bool"
				}
			],
			"name": "createToken",
			"outputs": [],
			"stateMutability": "payable",
			"type": "function"
		},
		{
			"inputs": [
				{
					"internalType": "uint256",
					"name": "",
					"type": "uint256"
				}
			],
			"name": "deployedTokens",
			"outputs": [
				{
					"internalType": "address",
					"name": "",
					"type": "address"
				}
			],
			"stateMutability": "view",
			"type": "function"
		},
		{
			"inputs": [
				{
					"internalType": "uint256",
					"name": "",
					"type": "uint256"
				}
			],
			"name": "feeRecipients",
			"outputs": [
				{
					"internalType": "address payable",
					"name": "",
					"type": "address"
				}
			],
			"stateMutability": "view",
			"type": "function"
		},
		{
			"inputs": [],
			"name": "getDeployedTokens",
			"outputs": [
				{
					"internalType": "address[]",
					"name": "",
					"type": "address[]"
				}
			],
			"stateMutability": "view",
			"type": "function"
		},
		{
			"inputs": [],
			"name": "getListedTokens",
			"outputs": [
				{
					"internalType": "address[]",
					"name": "",
					"type": "address[]"
				}
			],
			"stateMutability": "view",
			"type": "function"
		},
		{
			"inputs": [
				{
					"internalType": "address",
					"name": "",
					"type": "address"
				}
			],
			"name": "listedTokens",
			"outputs": [
				{
					"internalType": "bool",
					"name": "",
					"type": "bool"
				}
			],
			"stateMutability": "view",
			"type": "function"
		}
	]
}